S01100006E6F746520746573742E737265637D
S113000045C0000060C000005EC000005CC000008D
S11300105AC0000058C0000056C0000054C0000080
S113002052C0000050C000004EC000004CC0000090
S11300304AC000006DC0000046C0000044C000007B
S113004042C0000040C000003EC000003CC00000B0
S11300503AC0000038C0000036C0000034C00000C0
S113006032C0000030C000002EC000002CC00000D0
S11300702AC0000028C0000026C0000024C00000E0
S113008022C0000020C000001EC0000011241FBEBA
S1130090CFEFD0E4DEBFCDBF11E0A0E0B1E0ECE4EF
S11300A0F6E000E00BBF02C007900D92A434B10744
S11300B0D9F721E0A4E4B1E001C01D92A435B20750
S11300C0E1F736D1C1C29CCF8BE0809381008DE7EC
S11300D090E0909389008093880082E080936F0081
S11300E0109285001092840080914001909141010A
S11300F0A0914201B091430180934E0190934F012E
S1130100A0935001B09351018FB780688FBF0895B9
S11301101F920F920FB60F9211248F939F93AF9358
S1130120BF9380914E0190914F01A0915001B091E5
S113013051010197A109B10980934E0190934F0198
S1130140A0935001B0935101892B8A2B8B2B99F4E6
S113015081E0809352018091400190914101A091EE
S11301604201B091430180934E0190934F01A093BB
S11301705001B0935101BF91AF919F918F910F9016
S11301800FBE0F901F90189560934001709341012A
S1130190809342019093430160934E0170934F0109
S11301A080935001909351010895CF92DF92EF9282
S11301B0FF926B017C019B01AC0160914401709141
S11301C045018091460190914701C5D0882309F4E7
S11301D040C020E030E0A901C701B601BCD08111C4
S11301E004C085B5887085BD03C085B5836085BDB1
S11301F028E539E344E75FE3C701B601ACD08823BF
S11302001CF48FEF87BD1CC020E034E244EF56E4B9
S1130210C701B601B2D1181614F417BC11C020E0FE
S113022030E040E053E4C701B601ABD19B01AC011F
S113023060E074E284EF9AE492D0F9D0615067BD33
S113024016BCC0924401D0924501E0924601F0925E
S11302504701FF90EF90DF90CF90089581E484BD33
S11302608BE085BD60E070E0CB019FCF089580B145
S113027091E0282F217080FD90E090934D0180B192
S11302808095827080934C0180B1809584708093B6
S11302904B0180915301813041F018F0823089F094
S11302A017C081E0809353011EC0211105C0D6DF21
S11302B082E0809353011EC060E070E0CB0175DFE3
S11302C007C0809149018130A9F4809353010BC088
S11302D080915301813039F018F0823031F50AC031
S11302E01092480108951092480110924901109209
S11302F04A010895E0914801E031C8F4F0E0EE0FBE
S1130300FF1FEE0FFF1FE050FF4F6081718182815C
S113031093814BDF809148018F3019F491E09093E1
S113032049018F5F80934801089510925301089505
S113033011B88FEF82B984B915B868EC70E080E029
S113034090E022DFC1DE93DF809152018823E1F344
S113035010925201F8CF9CD008F481E008950CD09B
S1130360D2C0CAD040F0C1D030F021F45F3F19F0C0
S1130370B3C05111FCC0B6C0D7D098F39923C9F3C8
S11303805523B1F3951B550BBB27AA276217730797
S1130390840738F09F5F5F4F220F331F441FAA1F4B
S11303A0A9F333D00E2E3AF0E0E830D0915050400B
S11303B0E695001CCAF729D0FE2F27D0660F771FB9
S11303C0881FBB1F261737074807AB07B0E809F09B
S11303D0BB0B802DBF01FF2793585F4F2AF09E3F30
S11303E0510568F079C0C3C05F3FECF3983EDCF37D
S11303F0869577956795B795F7959F5FC9F7880FA9
S1130400911D9695879597F90895E1E0660F771FFA
S1130410881FBB1F621773078407BA0720F0621B8B
S1130420730B840BBA0BEE1F88F7E095089504D084
S11304306894B1119CC008957FD088F09F5790F0C4
S1130440B92F9927B751A0F0D1F0660F771F881FF5
S1130450991F1AF0BA95C9F712C0B13081F086D04D
S1130460B1E0089583C0672F782F8827B85F39F0EB
S1130470B93FCCF3869577956795B395D9F73EF454
S113048090958095709561957F4F8F4F9F4F0895FC
S1130490990F0008550FAA0BE0E8FEEF1616170691
S11304A0E807F907C0F012161306E407F50798F0F9
S11304B0621B730B840B950B39F40A2661F0232B12
S11304C0242B252B21F408950A2609F4A140A6958E
S11304D08FEF811D811D089597F99F6780E870E073
S11304E060E008959FEF80EC089500240A941616A6
S11304F0170618060906089500240A94121613060E
S1130500140605060895092E0394000C11F488239B
S113051052F0BB0F40F4BF2B11F460FF04C06F5FB7
S11305207F4F8F4F9F4F089557FD9058440F551F8D
S113053059F05F3F71F04795880F97FB991F61F061
S11305409F3F79F087950895121613061406551FD8
S1130550F2CF4695F1DF08C0161617061806991F44
S1130560F1CF86957105610508940895E894BB2739
S113057066277727CB0197F908958ADF08F48FEF70
S113058008950BD0C0CFB1DF28F0B6DF18F0952363
S113059009F0A2CFA7CF1124EACFC6DFA0F3959F1D
S11305A0D1F3950F50E0551F629FF001729FBB2756
S11305B0F00DB11D639FAA27F00DB11DAA1F649F02
S11305C06627B00DA11D661F829F2227B00DA11DB5
S11305D0621F739FB00DA11D621F839FA00D611D3B
S11305E0221F749F3327A00D611D231F849F600D5C
S11305F0211D822F762F6A2F11249F5750408AF095
S1130600E1F088234AF0EE0FFF1FBB1F661F771F20
S1130610881F91505040A9F79E3F510570F05CCF60
S1130620A6CF5F3FECF3983EDCF38695779567950C
S1130630B795F795E7959F5FC1F7FE2B880F911D3E
S10F06409695879597F90895F894FFCFDC
S113064C0000DC430000DC430000C4430000B94359
S113065C00808A4300808A4300007743000077437C
S113066C0000DC430000DC430000C4430000B94339
S113067C00808A4300808A4300007743000077435C
S107068C0100000065
S9030000FC
