S01600006C63645F636861726163746572732E737265635C
S113000045C0000060C000005EC000005CC000008D
S11300105AC0000058C0000056C0000054C0000080
S113002052C0000050C000004EC000004CC0000090
S11300304AC0000049C0000046C0000044C000009F
S113004042C0000040C000003EC000003CC00000B0
S11300503AC0000038C0000036C0000034C00000C0
S113006032C0000030C000002EC000002CC00000D0
S11300702AC0000028C0000026C0000024C00000E0
S113008022C0000020C000001EC0000011241FBEBA
S1130090CFEFD0E4DEBFCDBF11E0A0E0B1E0E4E8F3
S11300A0F2E000E00BBF02C007900D92AC33B10741
S11300B0D9F721E0ACE3B1E001C01D92A134B2074D
S11300C0E1F7B1D0DDC09CCF1F920F920FB60F9213
S11300D011248F939F93AF93BF9380913C01909190
S11300E03D01A0913E01B0913F010197A109B109E1
S11300F080933C0190933D01A0933E01B0933F0156
S1130100892B8A2B8B2B99F481E080934001809179
S1130110300190913101A0913201B091330180936B
S11301203C0190933D01A0933E01B0933F01BF91E8
S1130130AF919F918F910F900FBE0F901F901895C4
S1130140181619065CF00895000021503109E1F7F2
S11301504F5F5F4F8417950719F4089540E050E00E
S113016027E033E0F1CF10988BB9119A0000119871
S113017082E090E0E5CF089581E0F5CF08958131E4
S113018018F48158F0CF08958155EDCF089584E691
S113019090E0D6DF88E3E7DF86E0E5DF8FE0E3DFAA
S11301A081E0E1DF8AE090E0CBCF0895109A8BB92B
S11301B0119A0000119881E090E0C2CF08950F9346
S11301C01F93CF93DF93182FEB01D6DF8881882309
S11301D051F001E0010F812FD2DF8991E7DF102F69
S11301E088818111F6CFDF91CF911F910F910895EE
S11301F00F931F93CF93DF938B01883068F4880F9C
S1130200880F880F805CAFDFE801085F1F4F89917A
S1130210CDDFC017D107D9F780E8A5DFDF91CF91F3
S11302201F910F9108958FEF8AB91BB881B912B845
S1130230AEDF68E271E080E0DBDF60E271E081E084
S1130240D7DF68E171E082E0D3DF60E171E083E051
S1130250CFDF68E071E084E0CBDF60E071E085E04F
S1130260C7DF80E08CDF64E371E081E0A8DF81E137
S113027086DFC0E08C2F9ADFCF5FC630D9F7FFCF7F
S1070280F894FFCF1C
S11302841F1F13131F13131300100010101010104A
S11302941F0B0B0F0808081C1F1111111111111F3A
S11302A41F15040404040404191919191919191F2C
S10F02B40100000053795354454D000034
S9030000FC
