:1000000045C0000060C000005EC000005CC0000091
:100010005AC0000058C0000056C0000054C0000084
:1000200052C0000050C000004EC000004CC0000094
:100030004AC0000049C0000046C0000044C00000A3
:1000400042C0000040C000003EC000003CC00000B4
:100050003AC0000038C0000036C0000034C00000C4
:1000600032C0000030C000002EC000002CC00000D4
:100070002AC0000028C0000026C0000024C00000E4
:1000800022C0000020C000001EC0000011241FBEBE
:10009000CFEFD0E4DEBFCDBF11E0A0E0B1E0E8EFEC
:1000A000F3E000E00BBF02C007900D92A434B1074B
:1000B000D9F721E0A4E4B1E001C01D92A934B20750
:1000C000E1F7D1D097C19CCF1F920F920FB60F923C
:1000D00011248F939F93AF93BF938091440190918C
:1000E0004501A0914601B09147010197A109B109CD
:1000F0008093440190934501A0934601B09347013A
:10010000892B8A2B8B2B99F481E080934801809175
:10011000400190914101A0914201B091430180932F
:10012000440190934501A0934601B0934701BF91CC
:10013000AF919F918F910F900FBE0F901F901895C8
:10014000181619065CF00895000021503109E1F7F6
:100150004F5F5F4F8417950719F4089540E050E012
:1001600027E033E0F1CF40988BB9419A00004198E5
:1001700082E090E0E5CF089581E0F5CF08958131E8
:1001800018F48158F0CF08958155EDCF0895409A25
:100190008BB9419A0000419881E090E0D1CF089559
:1001A0000F931F93CF93DF93182FEB01E5DF888127
:1001B000882351F001E0010F812FE1DF8991E7DF12
:1001C000102F88818111F6CFDF91CF911F910F9170
:1001D00008950F931F93CF93DF938B01883068F4BA
:1001E000880F880F880F805CBEDFE801085F1F4F13
:1001F0008991CDDFC017D107D9F780E8B4DFDF914F
:10020000CF911F910F91089584E690E099DF88E3E4
:10021000AADF86E0A8DF8FE0A6DF81E0A4DF8AE026
:1002200090E08EDF68E371E080E0D3DF60E371E0AF
:1002300081E0CFDF68E271E082E0CBDF60E271E075
:1002400083E0C7DF68E171E084E0C3DF60E171E073
:1002500085E0BFDF68E071E086E0BBDF60E071E071
:1002600087E0B7CF0895CF93DF9300D0CDB7DEB747
:100270008FEF8AB91BB811B882B984B915B887B99C
:1002800018B8C2DF68E371E080E0A3DF60E371E0EB
:1002900081E09FDF68E271E082E09BDF60E271E075
:1002A00083E097DF68E171E084E093DF60E171E073
:1002B00085E08FDF68E071E086E08BDF60E071E071
:1002C00087E087DF85E05BDF83E061DF85E157DF83
:1002D00010E0812F5CDF1F5F1630D9F74DDF82E021
:1002E0004EDF45E050E061E070E0CE0101965BD06A
:1002F000BE016F5F7F4F81E053DF12E00099FECFB8
:100300001F5F4AE050E0BE016F5F7F4F812F90E09A
:100310000DD045E050E061E070E0CE01019653D091
:10032000BE016F5F7F4F81E03BDFE8CF4532510573
:1003300018F4423008F004C0FB011082CB0108958C
:10034000BB274A3031F4992322F4BDE29095819580
:100350009F4F01C0BB27FB015527AA27880F991F74
:10036000AA1FA41710F0A41B83955051B9F7A05DE4
:10037000AA3308F0A95DA193009779F7B111B19361
:100380001192CB0100C0DC01FC01672F7191772332
:10039000E1F7329704C07C916D9370836291AE1740
:1003A000BF07C8F30895DC01CB01FC01F999FECF2A
:1003B00006C0F2BDE1BDF89A319600B40D924150ED
:1003C0005040B8F70895DC01CB0102C02D9105D053
:1003D00041505040D8F70895262FF999FECF1FBA03
:1003E00092BD81BD20BD0FB6F894FA9AF99A0FBE5E
:0803F00001960895F894FFCF77
:1003F8001F191A1E1E1A191F0F0808080F01011FBE
:100408001F1F13131F1313130010001010101010C8
:100418001F0B0B0F0808081C1F1111111111111FB8
:100428001F15040404040404191919191919191FAA
:0404380001000000BF
:00000001FF
