:1000000045C0000060C000005EC000005CC0000091
:100010005AC0000058C0000056C0000054C0000084
:1000200052C0000050C000004EC000004CC0000094
:100030004AC0000049C0000046C0000044C00000A3
:1000400042C0000040C000003EC000003CC00000B4
:100050003AC0000038C0000036C0000034C00000C4
:1000600032C0000030C000002EC000002CC00000D4
:100070002AC0000028C0000026C0000024C00000E4
:1000800022C0000020C000001EC0000011241FBEBE
:10009000CFEFD0E4DEBFCDBF11E0A0E0B1E0E0EAF9
:1000A000F2E000E00BBF02C007900D92A434B1074C
:1000B000D9F721E0A4E4B1E001C01D92A934B20750
:1000C000E1F7B5D0EBC09CCF1F920F920FB60F9205
:1000D00011248F939F93AF93BF938091440190918C
:1000E0004501A0914601B09147010197A109B109CD
:1000F0008093440190934501A0934601B09347013A
:10010000892B8A2B8B2B99F481E080934801809175
:10011000400190914101A0914201B091430180932F
:10012000440190934501A0934601B0934701BF91CC
:10013000AF919F918F910F900FBE0F901F901895C8
:10014000181619065CF00895000021503109E1F7F6
:100150004F5F5F4F8417950719F4089540E050E012
:1001600027E033E0F1CF40988BB9419A00004198E5
:1001700082E090E0E5CF0895813118F48158F3CF03
:1001800008958155F0CF0895409A8BB9419A0000A7
:10019000419881E090E0D4CF08950F931F93CF93BF
:1001A000DF938B01883068F4880F880F880F805C9C
:1001B000DADFE801085F1F4F8991E6DFC017D1073A
:1001C000D9F780E8D0DFDF91CF911F910F9108958B
:1001D00084E690E0B5DF88E3C6DF86E0C4DF8FE029
:1001E000C2DF81E0C0DF8AE090E0AADF68E371E06F
:1001F00080E0D3DF60E371E081E0CFDF68E271E0AF
:1002000082E0CBDF60E271E083E0C7DF68E171E0AC
:1002100084E0C3DF60E171E085E0BFDF68E071E0AA
:1002200086E0BBDF60E071E087E0B7CF08958FEF35
:100230008AB91BB881B912B884B915B887B918B88A
:10024000C7DF68E371E080E0A8DF60E371E081E090
:10025000A4DF68E271E082E0A0DF60E271E083E0A9
:100260009CDF68E171E084E098DF60E171E085E0A7
:1002700094DF68E071E086E090DF60E071E087E0A5
:100280008CDF85E079DF85EA7FDF85E175DFC0E01F
:100290008C2F7ADFCF5FC630D9F7FFCFF894FFCF2E
:1002A0001F191A1E1E1A191F0F0808080F01011F17
:1002B0001F1F13131F131313001000101010101022
:1002C0001F0B0B0F0808081C1F1111111111111F12
:1002D0001F15040404040404191919191919191F04
:0402E0000100000019
:00000001FF
