S01100006E65774D61747269782E7372656354
S11300004DC0000068C0000066C0000064C000006D
S113001062C0000060C000005EC000005CC0000060
S11300205AC0000058C0000056C0000054C0000070
S113003052C0000097C100004EC000004CC0000038
S11300404AC0000048C0000046C0000044C0000090
S113005042C0000040C000003EC000003CC00000A0
S11300603AC0000038C0000036C0000034C00000B0
S113007032C0000030C000002EC000002CC00000C0
S11300802AC0000028C0000026C00000F400F600CA
S1130090F800FA00FC00FE000001020111241FBE5A
S11300A0CFEFD0E4DEBFCDBF11E0A0E0B1E0EEEAD7
S11300B0F4E000E00BBF02C007900D92AC30B10732
S11300C0D9F721E0ACE0B1E001C01D92A432B2073F
S11300D0E1F797D1EAC194CF47E050E061E070E0E6
S11300E090E02A989B01042E02C0220F331F0A9429
S11300F0E2F728233923042E02C0359527950A9464
S1130100E2F7222311F0289A01C028982A9A415034
S1130110510938F70895CF93DF938230D0F4C42F78
S1130120D62F2998882361F002C0299A12C0862FFD
S1130130D3DF8C2FD1DF80E0CFDF80E0CDDFF5CFC0
S113014080E0CADF80E0C8DF8D2FC6DF8C2FC4DFDC
S1130150ECCFDF91CF910895623018F4462F6CE014
S1130160DACF0895603118F4462F6AE0D4CF0895A9
S1130170623018F4462F6FE0CECF0895683018F43B
S1130180462F6BE0C8CF0895462F69E0C4CF089589
S1130190462F61E0C0CF0895462F62E0BCCF08959A
S11301A0462F63E0B8CF0895462F64E0B4CF089596
S11301B0462F65E0B0CF0895462F66E0ACCF089592
S11301C0462F67E0A8CF0895462F68E0A4CF08958E
S11301D00F931F93062F10E008301105A0F4642F2D
S11301E0F801EA5BFF4F58C1D3DF0DC0D5DF0BC068
S11301F0D7DF09C0D9DF07C0DBDF05C0DDDF03C0FF
S1130200DFDF01C0E1DF1F910F910895209A229A48
S1130210219A28982A9829980895FF920F931F935A
S1130220CF93DF93F82EC0E0D0E0082F10E0000F4A
S1130230111F000F111F000F111F0C5E1E4FF8013C
S1130240EC0FFD1F108240E06C2F8F2DC1DF219633
S1130250C830D105A1F7DF91CF911F910F91FF9085
S11302600895CF92DF92FF920F931F93CF93DF9362
S1130270823010F5F82E062F172FC0E0D0E0C82EDC
S1130280D12CC601880F991F880F991F880F991FB9
S11302909C012C5E3E4F6901F801D8018D918D01BE
S11302A0D601AC0FBD1F8C9340816C2F8F2D90DF36
S11302B02196C830D10581F7DF91CF911F910F911D
S11302C0FF90DF90CF900895CF93A0DFC0E061E06E
S11302D08C2F42DF60E08C2F4BDF60E08C2F54DFEB
S11302E06FE08C2F3FDF67E08C2F48DF8C2F95DF8A
S11302F0CF5FC23061F7CF9108956093000170938E
S11303000101809302019093030160930C017093A7
S11303100D0180930E0190930F0108958BE080935B
S113032081008DE790E0909389008093880082E0BB
S113033080936F00109285001092840080910001D8
S113034090910101A0910201B091030180930C01ED
S113035090930D01A0930E01B0930F018FB78068A5
S11303608FBF08951F920F920FB60F9211248F938F
S11303709F93AF93BF9380910C0190910D01A09135
S11303800E01B0910F010197A109B10980930C01ED
S113039090930D01A0930E01B0930F01892B8A2B2A
S11303A08B2B99F481E0809310018091000190914E
S11303B00101A0910201B091030180930C0190937B
S11303C00D01A0930E01B0930F01BF91AF919F91C6
S11303D08F910F900FBE0F901F9018951816190645
S11303E05CF00895000021503109E1F74F5F5F4F41
S11303F08417950719F4089540E050E027E033E0AE
S1130400F1CFCF93DF93CDB7DEB760970FB6F894F3
S1130410DEBF0FBECDBF11B88FEF82B984B915B856
S113042053DF88E0E4E0F1E0DE01119601900D92E3
S11304308A95E1F764E670E080E090E05EDF6EDFCD
S1130440FE01399688E0DF011D928A95E9F7BE0125
S11304506F5F7F4F80E005DF8E010F5E1F4FFE014F
S113046039968081880F8193E017F107D1F78A8547
S113047081608A878B8581608B8782E390E0AEDF21
S1130480BE01675F7F4F80E0ECDE8091100188231E
S1130490E1F310921001E3CFEE0FFF1F0024001CC4
S11104A00BBE0790F691E02D0994F894FFCF5F
S10F04AE0100000081422418182442813F
S9030000FC
