:100000004DC0000068C0000066C0000064C0000071
:1000100062C0000060C000005EC000005CC0000064
:100020005AC0000058C0000056C0000054C0000074
:1000300052C0000086C000004EC000004CC000004E
:100040004AC0000048C0000046C0000044C0000094
:1000500042C0000040C000003EC000003CC00000A4
:100060003AC0000038C0000036C0000034C00000B4
:1000700032C0000030C000002EC000002CC00000C4
:100080002AC0000028C0000026C000005D025F02F8
:10009000610263026502670269026B0211241FBEDE
:1000A000CFEFD0E4DEBFCDBF11E0A0E0B1E0EEECD9
:1000B000FAE000E00BBF02C007900D92AC3CB10724
:1000C000D9F722E0ACECB1E001C01D92A331B20738
:1000D000E1F7FFD2FAC494CF6093BC017093BD01E5
:1000E0008093BE019093BF016093DD017093DE01A8
:1000F0008093DF019093E00108958BE0809381006D
:100100008DE790E0909389008093880082E080934F
:100110006F0010928500109284008091BC01909134
:10012000BD01A091BE01B091BF018093DD0190930C
:10013000DE01A093DF01B093E0018FB780688FBF2D
:1001400008951F920F920FB60F9211248F939F93D1
:10015000AF93BF938091DD019091DE01A091DF010B
:10016000B091E0010197A109B1098093DD0190935D
:10017000DE01A093DF01B093E001892B8A2B8B2B4A
:1001800099F481E08093E1018091BC019091BD01DF
:10019000A091BE01B091BF018093DD019093DE017B
:1001A000A093DF01B093E001BF91AF919F918F9138
:1001B0000F900FBE0F901F901895CF92DF92EF9285
:1001C000FF926B017C019B01AC016091CC017091AD
:1001D000CD018091CE019091CF01F5D2882309F411
:1001E00040C020E030E0A901C701B601ECD2811186
:1001F00004C085B5887085BD03C085B5836085BDA5
:1002000028E539E344E75FE3C701B601DCD2882380
:100210001CF48FEF87BD1CC020E034E244EF56E4AD
:10022000C701B601E2D3181614F417BC11C020E0C0
:1002300030E040E053E4C701B601DBD39B01AC01E1
:1002400060E074E284EF9AE4C2D229D3615067BDC2
:1002500016BCC092CC01D092CD01E092CE01F092BA
:10026000CF01FF90EF90DF90CF90089581E484BD9F
:100270008BE085BD60E070E0CB019FCF08958130B9
:10028000910531F082309105D1F0009731F410C022
:10029000EDDF81E08093DA0112C08130910541F0F9
:1002A0008230910561F0009721F51092D0010895F8
:1002B0001092D0011092D1011092DB010895E091CB
:1002C000D001E634B0F4F0E0EE0FFF1FEE0FFF1F99
:1002D000E050FF4F60817181828193816EDF809158
:1002E000D0018F5F8093D0018091DB018F5F80937D
:1002F000DB010895181619065CF0089500002150DE
:100300003109E1F74F5F5F4F8417950719F408959E
:1003100040E050E027E033E0F1CF40988BB9419ABC
:100320000000419882E090E0E5CF089581E0F5CFAC
:100330000895813118F48158F0CF08958155EDCF9B
:100340000895409A8BB9419A0000419881E090E06D
:10035000D1CF08950F931F93CF93DF93182FEB0105
:10036000E5DF8881882351F001E0010F812FE1DF73
:100370008991E7DF102F88818111F6CFDF91CF912E
:100380001F910F910895029778F4009907C081E0BA
:100390008093DC0160EC71E0DDCF08951092DC0108
:1003A00066EC71E081E0D6CF089547E050E061E06F
:1003B00070E090E02A989B01042E02C0220F331FA8
:1003C0000A94E2F728233923042E02C03595279595
:1003D0000A94E2F7222311F0289A01C028982A9A59
:1003E0004150510938F70895CF93DF938230D0F40C
:1003F000C42FD62F2998882361F002C0299A12C0F1
:10040000862FD3DF8C2FD1DF80E0CFDF80E0CDDF00
:10041000F5CF80E0CADF80E0C8DF8D2FC6DF8C2FEC
:10042000C4DFECCFDF91CF910895623018F4462FEE
:100430006CE0DACF0895603118F4462F6AE0D4CF2B
:100440000895623018F4462F6FE0CECF08956830DB
:1004500018F4462F6BE0C8CF0895462F69E0C4CF4B
:100460000895462F61E0C0CF0895462F62E0BCCFCB
:100470000895462F63E0B8CF0895462F64E0B4CFC7
:100480000895462F65E0B0CF0895462F66E0ACCFC3
:100490000895462F67E0A8CF0895462F68E0A4CFBF
:1004A00008950F931F93062F10E008301105A0F454
:1004B000642FF801EA5BFF4FFFC2D3DF0DC0D5DF29
:1004C0000BC0D7DF09C0D9DF07C0DBDF05C0DDDF28
:1004D00003C0DFDF01C0E1DF1F910F910895209A73
:1004E000229A219A28982A9829980895FF920F9382
:1004F0001F93CF93DF93F82EC0E0D0E0082F10E0D9
:10050000000F111F000F111F000F111F0D5F1D4F56
:10051000F801EC0FFD1F108240E06C2F8F2DC1DF22
:100520002196C830D105A1F7DF91CF911F910F918E
:10053000FF900895CF92DF92FF920F931F93CF9376
:10054000DF93823010F5F82E062F172FC0E0D0E091
:10055000C82ED12CC601880F991F880F991F880FAC
:10056000991F9C012D5F3D4F6901F801D8018D91C4
:100570008D01D601AC0FBD1F8C9340816C2F8F2D48
:1005800090DF2196C830D10581F7DF91CF911F917F
:100590000F91FF90DF90CF90089581309105B9F0D1
:1005A0001CF4892B39F01FC082309105A1F003970C
:1005B000B1F019C08AE090E09DDE31E020E080914A
:1005C000DA01811101C030E0832F922F0EC08AE042
:1005D00090E090DE14C08AE090E08CDE1AC08AE0E1
:1005E00090E088DE11C080E090E08230910539F023
:1005F0008330910571F0019709F051C005C0E2ED1B
:10060000F1E02AED31E020C0E2EDF1E02AED31E049
:1006100005C0E2EDF1E02AED31E02CC08081880FC9
:1006200081932E173F07D1F7E2EDF1E081818160E0
:10063000818382818160828382E390E05BDE62ED70
:1006400071E080E077CF08958081880F81932E1725
:100650003F07D1F7E2EDF1E08381816083838481FC
:100660008160848382E390E045DE62ED71E080E0AA
:1006700061CF08958081880F8193E217F307D1F746
:10068000E2EDF1E0858181608583868181608683EA
:1006900082E390E02FDE62ED71E080E04BCF0895C1
:1006A000CF931DDFC0E061E08C2FBFDE60E08C2FB8
:1006B000C8DE60E08C2FD1DE6FE08C2FBCDE67E0FF
:1006C0008C2FC5DE8C2F12DFCF5FC23061F7CF9148
:1006D000089511B88FEF82B984B915B8E1DF64EBE2
:1006E00071E080E027DFE2EEF1E0108288E290E046
:1006F000A0E0B0E081839283A383B4831582168245
:100700001782108623EC31E03287218713864FE071
:1007100050E060E070E04487558766877787108AED
:10072000118A128A138A2FE331E0358B248B168AC3
:10073000878B908FA18FB28F138E148E158E168E8D
:100740008DEC92E090A3878F65E070E080E090E010
:10075000C3DCD3DC0F2EF3E0EF2EF2E0FF2EF02D02
:10076000C2EED1E08E014D815E816F8178858981F5
:100770009A81AB81BC81481759076A077B0760F0F3
:100780008881E985FA85082E000C990B09958883E4
:100790001D821E821F821886F80185819681A7819D
:1007A000B0850596A11DB11D85839683A783B0876B
:1007B0002B96CE15DF05B1F68091E1018823E1F398
:1007C0001092E101CDCF9CD008F481E008950CD0C7
:1007D000D2C0CAD040F0C1D030F021F45F3F19F050
:1007E000B3C05111FCC0B6C0D7D098F39923C9F358
:1007F0005523B1F3951B550BBB27AA276217730727
:10080000840738F09F5F5F4F220F331F441FAA1FDA
:10081000A9F333D00E2E3AF0E0E830D0915050409A
:10082000E695001CCAF729D0FE2F27D0660F771F48
:10083000881FBB1F261737074807AB07B0E809F02A
:10084000BB0B802DBF01FF2793585F4F2AF09E3FBF
:10085000510568F079C0C3C05F3FECF3983EDCF30C
:10086000869577956795B795F7959F5FC9F7880F38
:10087000911D9695879597F90895E1E0660F771F8A
:10088000881FBB1F621773078407BA0720F0621B1B
:10089000730B840BBA0BEE1F88F7E095089504D014
:1008A0006894B1119CC008957FD088F09F5790F054
:1008B000B92F9927B751A0F0D1F0660F771F881F85
:1008C000991F1AF0BA95C9F712C0B13081F086D0DD
:1008D000B1E0089583C0672F782F8827B85F39F07B
:1008E000B93FCCF3869577956795B395D9F73EF4E4
:1008F00090958095709561957F4F8F4F9F4F08958C
:10090000990F0008550FAA0BE0E8FEEF1616170620
:10091000E807F907C0F012161306E407F50798F088
:10092000621B730B840B950B39F40A2661F0232BA1
:10093000242B252B21F408950A2609F4A140A6951D
:100940008FEF811D811D089597F99F6780E870E002
:1009500060E008959FEF80EC089500240A94161635
:10096000170618060906089500240A94121613069D
:10097000140605060895092E0394000C11F488232B
:1009800052F0BB0F40F4BF2B11F460FF04C06F5F47
:100990007F4F8F4F9F4F089557FD9058440F551F1D
:1009A00059F05F3F71F04795880F97FB991F61F0F1
:1009B0009F3F79F087950895121613061406551F68
:1009C000F2CF4695F1DF08C0161617061806991FD4
:1009D000F1CF86957105610508940895E894BB27C9
:1009E00066277727CB0197F908958ADF08F48FEF00
:1009F00008950BD0C0CFB1DF28F0B6DF18F09523F3
:100A000009F0A2CFA7CF1124EACFC6DFA0F3959FAC
:100A1000D1F3950F50E0551F629FF001729FBB27E5
:100A2000F00DB11D639FAA27F00DB11DAA1F649F91
:100A30006627B00DA11D661F829F2227B00DA11D44
:100A4000621F739FB00DA11D621F839FA00D611DCA
:100A5000221F749F3327A00D611D231F849F600DEB
:100A6000211D822F762F6A2F11249F5750408AF024
:100A7000E1F088234AF0EE0FFF1FBB1F661F771FB0
:100A8000881F91505040A9F79E3F510570F05CCFF0
:100A9000A6CF5F3FECF3983EDCF38695779567959C
:100AA000B795F795E7959F5FC1F7FE2B880F911DCE
:100AB0009695879597F90895EE0FFF1F0024001C67
:0E0AC0000BBE0790F691E02D0994F894FFCF3D
:100ACE00000000000000DC430000DC430000DC43BB
:100ADE000000C4430000B94300808A4300808A436B
:100AEE0000808A430000774300007743000077437D
:100AFE000000DC430000DC430000DC430000C44384
:100B0E000000B94300808A4300808A4300808A43F4
:100B1E000000774300007743000077430000DC437A
:100B2E000000DC430000DC430000C4430000B94376
:100B3E0000808A4300808A4300808A430000774306
:100B4E0000007743000077430000DC430000DC43E5
:100B5E000000DC430000C4430000B94300808A4318
:100B6E0000808A4300808A43000077430000774369
:100B7E0000007743FF818181818181FF01000000A8
:0C0B8E007072657373006E6F706500007C
:00000001FF
