:1000000067C0000083C0000081C000007FC0000006
:100010007DC000007BC0000079C0000077C00000F8
:1000200075C0000073C0000071C000006FC0000008
:100030006DC00000E9C0000069C0000067C000009A
:1000400065C0000063C0000061C000005FC0000028
:100050005DC000005BC0000059C0000057C0000038
:1000600055C0000053C0000051C000004FC0000048
:100070004DC000004BC0000049C0000047C0000058
:1000800045C0000043C0000041C0000028036802D2
:100090006F028802A602C402DA02EC020A03150308
:1000A00000036004240328034C036E03AF03D6034C
:1000B000F8031A044F0460043C048E048704D4033C
:1000C00089058B058D058F05910593059505970588
:1000D00011241FBECFEFD0E4DEBFCDBF12E0A0E001
:1000E000B1E0EAE2F6E100E00BBF02C007900D923A
:1000F000A83DB107D9F723E0A8EDB2E001C01D92F9
:10010000A435B207E1F7DAD70C94130B79CF029735
:1001100068F4009906C081E08093E00281E090E0FD
:1001200008951092E00281E090E0089580E090E070
:100130000895029768F4029906C081E08093DF0277
:1001400081E090E008951092DF0281E090E0089550
:1001500080E090E00895029768F4019906C081E07C
:100160008093DE0281E090E008951092DE0281E04B
:1001700090E0089580E090E00895029768F4039974
:1001800006C081E08093DD0281E090E00895109246
:10019000DD0281E090E0089580E090E008956093B2
:1001A000C5027093C6028093C7029093C802609301
:1001B000E7027093E8028093E9029093EA020895BF
:1001C0008BE0809381008DE790E09093890080938D
:1001D000880082E080936F00109285001092840066
:1001E0008091C5029091C602A091C702B091C80249
:1001F0008093E7029093E802A093E902B093EA02A9
:100200008FB780688FBF08951F920F920FB60F921D
:1002100011248F939F93AF93BF938091E7029091A6
:10022000E802A091E902B091EA020197A109B1099F
:100230008093E7029093E802A093E902B093EA0268
:10024000892B8A2B8B2B99F481E08093EB02809190
:10025000C5029091C602A091C702B091C8028093D6
:10026000E7029093E802A093E902B093EA02BF91FB
:10027000AF919F918F910F900FBE0F901F90189587
:10028000181619065CF00895000021503109E1F7B5
:100290004F5F5F4F8417950719F4089540E050E0D1
:1002A00027E033E0F1CF40988BB9419A00004198A4
:1002B00082E090E0E5CF089581E0F5CF08958131A7
:1002C00018F48158F0CF08958155EDCF0895409AE4
:1002D0008BB9419A0000419881E090E0D1CF089518
:1002E0000F931F93CF93DF93182FEB01E5DF8881E6
:1002F000882351F001E0010F812FE1DF8991E7DFD1
:10030000102F88818111F6CFDF91CF911F910F912E
:1003100008950F931F93CF93DF938B01883068F478
:10032000880F880F880F805CBEDFE801085F1F4FD1
:100330008991CDDFC017D107D9F780E8B4DFDF910D
:10034000CF911F910F91089584E690E099DF88E3A3
:10035000AADF86E0A8DF8FE0A6DF81E0A4DF8AE0E5
:1003600090E08EDF6DEB72E080E0D3DF65EB72E052
:1003700081E0CFDF6DEA72E082E0CBDF65EA72E018
:1003800083E0C7DF6DE972E084E0C3DF65E972E016
:1003900085E0BFDF6DE872E086E0BBDF65E872E014
:1003A00087E0B7CF0895289A089528980895299A44
:1003B000299808952A9A81E0982F9A95F1F72A981A
:1003C0008A95F1F70895CF93DF93D82FC8E0DD2306
:1003D00014F4E9DF01C0E9DFEADFDD0FC150B9F74E
:1003E000E9DFDF91CF910895CF92DF92EF92FF92F4
:1003F0006B017C019B01AC016091D8027091D90224
:100400008091DA029091DB0228D7882309F442C058
:1004100020E030E0A901C701B6011FD7811104C057
:1004200085B5887085BD03C085B5836085BD28E529
:1004300039E344E75FE3C701B6010FD788231CF413
:100440008FEF87BD1EC020E034E244EF56E4C701C1
:10045000B6010E943F0A181614F417BC12C020E01F
:1004600030E040E053E4C701B6010E94430A9B011B
:10047000AC0160E074E284EF9AE4F3D65AD761509D
:1004800067BD16BCC092D802D092D902E092DA02BF
:10049000F092DB02FF90EF90DF90CF90089581E41F
:1004A00084BD8BE085BD60E070E0CB019DCF0895F9
:1004B000EF92FF920F931F93CF93DF93EC018C3059
:1004C000910508F0B9C0FC01EA5BFF4F0C94A60A45
:1004D0008091E002882309F4BBC0EEDEDDC080918C
:1004E000DF02882331F08091DE02811106C0E4DE54
:1004F00036C18091DE028111F1C08091E002882333
:1005000009F4CAC0D9DE89EC92E08093ED024EC1B5
:1005100084E690E0B5DE8091E002882331F0CCDE05
:1005200089EC92E08093ED0241C18091DF0281115C
:1005300007C08091DE02882309F4D0C0BDDECEC0A2
:100540008091DE028111CAC0B7DE09C184E690E065
:1005500097DE8091E002882331F0AEDE8CEC92E0F1
:100560008093ED0223C18091DF02811107C0809149
:10057000DE02882309F4F3C09FDEB0C08091DE0262
:100580008111EDC099DEEBC084E690E079DE8091C8
:10059000E002811184C18091DF02811105C0809148
:1005A000DE02811125C102C18091DE028111FEC0EF
:1005B00083DE40C184E690E063DE8091E002811139
:1005C0006EC18091DF02882309F412C18091DE029E
:1005D00081110EC171DE2EC184E690E051DE809162
:1005E000E002882311F068DE47C18091DF028111AB
:1005F00021C18091DE02882309F41CC15DDEF8C0B0
:1006000084E690E03DDE8091DD02882309F434C168
:1006100053DECCC084E690E033DE8091E002882394
:1006200009F43DC13CDF48DE4BC18091E3028823E1
:1006300009F446C141DE6BC18E30910508F06EC1F0
:10064000FC01EE5AFF4F82C78EE190E019DE66C1D1
:100650008EE190E015DE85E032DE86E038DE89E767
:1006600036DE86E034DE84E532DE87E030DE8DE49F
:100670002EDE85E124DE80E02ADE81E028DE82E0D5
:1006800026DE83E024DE84E022DE85E020DE80E0DA
:1006900016DEC1E0D0E042C18EE190E0F1DD82E003
:1006A0000EDE85EA14DE83E00ADEC9E7D2E005E863
:1006B00012E089910CDE0C171D07D9F783E1FFDDED
:1006C000C0E6D2E00BE612E0899101DEC017D10747
:1006D000D9F780E0F4DDC2E0D0E020C184E690E00C
:1006E000CFDD82E0ECDD85EAF2DD83E0E8DDC9E71D
:1006F000D2E005E812E08991EADD0C171D07D9F771
:1007000083E1DDDDC0E6D2E00BE612E08991DFDDBA
:100710000C171D07D9F780E0D2DD81E08093DC0261
:1007200000E011E0C0E0D0E06894EE24E7F8F12C9E
:10073000C7010C2E02C0959587950A94E2F743DE17
:10074000F80181918F0180953EDE85E090E098DD93
:100750002196C830D10561F7C3E0D0E0DFC084E660
:1007600090E08EDD83E0ABDDC9E7D2E005E812E082
:100770008991ADDD0C171D07D9F782E1A0DD85EA6F
:10078000A6DD83E19CDDC0E6D2E00BE612E08991B4
:100790009EDD0C171D07D9F780E091DD82E0809384
:1007A000DC02C4E0D0E0BAC087DDB8C084E690E0E7
:1007B00067DD82E084DD85EA8ADD83E080DDC5E7F0
:1007C000D2E009E712E0899182DD0C171D07D9F705
:1007D00083E175DDCBE6D2E005E712E0899177DDB4
:1007E0000C171D07D9F780E06ADDC5E0D0E096C0A0
:1007F00084E690E045DD82E062DD85EA68DD83E045
:100800005EDDC5E7D2E009E712E0899160DD0C17F3
:100810001D07D9F783E153DDCBE6D2E005E712E00F
:10082000899155DD0C171D07D9F780E048DDC6E03A
:10083000D0E074C084E690E023DD83E040DDC5E7CE
:10084000D2E009E712E0899142DDC017D107D9F75C
:1008500082E135DD85EA3BDD83E131DDCBE6D2E0C7
:1008600005E712E0899133DD0C171D07D9F780E009
:1008700026DDC7E0D0E052C084E690E001DD84E0F0
:100880001EDDCBE6D2E005E712E0899120DD0C17F2
:100890001D07D9F780E013DDCAE0D0E03FC0FFDDDF
:1008A00081E10DDDC0E7D2E005E712E089910FDDBF
:1008B0000C171D07D9F780E002DDC8E0D0E02EC09C
:1008C00081E08093E1024AE050E06EE373E08091C2
:1008D000E5029091E60243D645E050E061E070E029
:1008E0008EE393E089D66EE373E081E0F9DC81E189
:1008F000E6DCC0E7D2E005E712E08991E8DC0C17FE
:100900001D07D9F780E0DBDCC9E0D0E007C06EEC62
:1009100072E081E0E5DCD0DCC1E0D0E0CE01DF9127
:10092000CF911F910F91FF90EF90089514BC15BCCB
:100930000895009721F081309105D1F009C031E090
:1009400020E08091E102811101C030E0832F922FDD
:10095000009729F08130910509F052C009C010922A
:100960003D031092E4021092EC021092EE02089500
:100970002091EE02822F90E0FC01E158FE4F408171
:100980003091E4023417A0F4880F991F880F991F43
:10099000FC01E455FE4F608171818281938124DDE9
:1009A0008091E4028F5F8093E40281E090E00895FB
:1009B000FC01EE5AFE4F90818091EC02891760F4A1
:1009C00060E070E0CB0110DD8091EC028F5F8093DE
:1009D000EC0281E090E008951092E4021092EC02A3
:1009E000283230F42F5F2093EE0281E090E00895EA
:1009F0009DDF81E08093E3021092E10281E090E0CC
:100A0000089547E050E061E070E090E02A989B0193
:100A1000042E02C0220F331F0A94E2F72823392341
:100A2000042E02C0359527950A94E2F7222311F08F
:100A3000289A01C028982A9A4150510938F70895F8
:100A4000CF93DF938230D0F4C42FD62F29988823F8
:100A500061F002C0299A12C0862FD3DF8C2FD1DF1C
:100A600080E0CFDF80E0CDDFF5CF80E0CADF80E03F
:100A7000C8DF8D2FC6DF8C2FC4DFECCFDF91CF9185
:100A80000895623018F4462F6CE0DACF0895603193
:100A900018F4462F6AE0D4CF0895623018F4462F38
:100AA0006FE0CECF0895683018F4462F6BE0C8CFC2
:100AB0000895462F69E0C4CF0895462F61E0C0CF66
:100AC0000895462F62E0BCCF0895462F63E0B8CF6B
:100AD0000895462F64E0B4CF0895462F65E0B0CF67
:100AE0000895462F66E0ACCF0895462F67E0A8CF63
:100AF0000895462F68E0A4CF08950F931F93062F03
:100B000010E008301105A0F4642FF801E05AFF4FFF
:100B10001DC5D3DF0DC0D5DF0BC0D7DF09C0D9DFBE
:100B200007C0DBDF05C0DDDF03C0DFDF01C0E1DFC1
:100B30001F910F910895209A229A219A28982A9815
:100B400029980895FF920F931F93CF93DF93F82E68
:100B5000C0E0D0E0082F10E0000F111F000F111FA0
:100B6000000F111F0C5B1C4FF801EC0FFD1F1082D2
:100B700040E06C2F8F2DC1DF2196C830D105A1F741
:100B8000DF91CF911F910F91FF900895CF92DF9247
:100B9000FF920F931F93CF93DF93823010F5F82EBF
:100BA000062F172FC0E0D0E0C82ED12CC601880F29
:100BB000991F880F991F880F991F9C012C5B3C4F30
:100BC0006901F801D8018D918D01D601AC0FBD1FCF
:100BD0008C9340816C2F8F2D90DF2196C830D105EA
:100BE00081F7DF91CF911F910F91FF90DF90CF9010
:100BF0000895823080F4683070F4E82FF0E0EE0F52
:100C0000FF1FEE0FFF1FEE0FFF1FEC5BFC4FE60F09
:100C1000F11D408372CF0895603468F5362F377028
:100C2000E82FF0E0EE0FFF1FEE0FFF1FEE0FFF1F8C
:100C3000EC5BFC4FE30FF11D2081442369F0962FFC
:100C400096959695969541E050E002C0440F551F49
:100C50009A95E2F7422B0DC0962F9695969596950C
:100C600041E050E002C0440F551F9A95E2F74095CD
:100C70004223632FBECF089541E0CECF089540E0D8
:100C8000CBCF08958130910551F08430910579F0F2
:100C9000892B09F0EDC18AE090E0F2DAF1C18AE037
:100CA00090E0EEDA8091E3028111EAC1E4C1809123
:100CB000E102882309F4E4C1DEC18081880F8193B9
:100CC0002E173F07D1F78091EE0290E020913D036F
:100CD000FC01E158FE4F3081231708F09BC0FC0156
:100CE000EB5DFE4F808180934203813019F5E8E08F
:100CF000F1E0808181608083818181608183809146
:100D0000E002882309F482C08091DD0281117EC057
:100D10008091DF0281117AC08091DE02811176C05C
:100D20008091E5029091E60201969093E60280930D
:100D3000E5026CC0823019F5E8E0F1E08281816063
:100D400082838381816083838091E00281115EC010
:100D50008091DD0281115AC08091DF02882309F45D
:100D600055C08091DE02811151C08091E5029091C1
:100D7000E60201969093E6028093E50247C0833035
:100D800011F5E8E0F1E084818160848385818160F0
:100D900085838091E002811139C08091DD0281114B
:100DA00035C08091DF02811131C08091DE0288233D
:100DB00069F18091E5029091E60201969093E60236
:100DC0008093E50223C0843009F5E8E0F1E08681F4
:100DD000816086838781816087838091E0028111B1
:100DE00015C08091DD02882389F08091DF02811196
:100DF0000DC08091DE02811109C08091E5029091C1
:100E0000E60201969093E6028093E5022F5F20931D
:100E10003D0310C02091EC02FC01E05FFE4F808199
:100E2000281720F42F5F2093EC0204C010923D039A
:100E30001092EC0268E071E080E0A8DE81E090E0D2
:100E4000089587E28093E20267E280913D0314DF18
:100E50006091E202685080913D030EDF2FE88FE53C
:100E600091E0215080409040E1F700C00000609187
:100E7000E20261506093E202603238F72FE986E8BF
:100E800091E0215080409040E1F700C0000087E2EF
:100E90008093E20267E280913D03F1DE6091E2021D
:100EA000685080913D03EBDE2FE88FE591E0215003
:100EB00080409040E1F700C000006091E202615084
:100EC0006093E202603238F784E090E00895809108
:100ED000DD02882309F446C080E28093E20260E2EA
:100EE00080913D03C9DE6091E202685080913D032C
:100EF000C3DE2FE88FE591E0215080409040E1F77C
:100F000000C000006091E2026F5F6093E20268320D
:100F100038F32FE986E891E0215080409040E1F7D6
:100F200000C0000080E28093E20260E280913D0315
:100F3000A6DE6091E202685080913D03A0DE2FE8BA
:100F40008FE591E0215080409040E1F700C0000023
:100F50006091E2026F5F6093E202683238F384E0EE
:100F600090E008958091DF028823D1F187E080939B
:100F7000E20267E080913D037FDE2FE88FE591E09C
:100F8000215080409040E1F700C000006091E202F3
:100F9000685F6093E2026C3368F32FE986E891E0C2
:100FA000215080409040E1F700C0000087E080932E
:100FB000E20267E080913D0362DE2FE88FE591E079
:100FC000215080409040E1F700C000006091E202B3
:100FD000685F6093E2026C3368F384E090E0089508
:100FE0008091DE02882309F43EC080E0ABDD80E41E
:100FF0008093E20260E480913D033EDE2FE88FE5BE
:1010000091E0215080409040E1F700C000006091E5
:10101000E20268506093E2026111EDCF2FE986E8A9
:1010200091E0215080409040E1F700C0000080E452
:101030008093E20260E480913D0321DE2FE88FE59A
:1010400091E0215080409040E1F700C000006091A5
:10105000E20268506093E2026111EDCF80E072DD40
:1010600084E090E0089580E06DDD84E090E00895F4
:1010700080E090E00895E8E0F1E020E131E01DCE6D
:101080008091E0028111DDCE22CFCF9354DDC0E00C
:1010900061E08C2FF6DC60E08C2FFFDC60E08C2FB1
:1010A00008DD6FE08C2FF3DC67E08C2FFCDC8C2FED
:1010B00049DDCF5FC23061F7CF91089511B88FEF4E
:1010C00082B984B915B88AB91BB887B918B83CD9A0
:1010D000DCDF61E080E0DBDC45E050E061E070E017
:1010E0008EE393E079D2EFEEF2E0108288E290E0B6
:1010F000A0E0B0E081839283A383B483158216823B
:101100001782108627E830E032872187138684878C
:101110009587A687B787108A118A128A138A29E9C8
:1011200030E0358B248B168A878B908FA18FB28FFE
:10113000138E148E158E168E2BEA30E030A3278F77
:1011400011A282A393A3A4A3B5A316A217A210A6CB
:1011500011A62DEB30E033A722A714A685A796A7EA
:10116000A7A7B0AB11AA12AA13AA14AA28E532E0C5
:1011700036AB25AB17AA4EE150E060E070E040AF1F
:1011800051AF62AF73AF14AE15AE16AE17AE29E90C
:1011900034E03093300320932F0310923103809377
:1011A000320390933303A0933403B093350310922A
:1011B000360310923703109238031092390382E4F9
:1011C00096E090933B0380933A0365E070E080E003
:1011D00090E00E94CF000E94E0000F2EFCE3EF2E73
:1011E000F3E0FF2EF02DCFEED2E08E014D815E8137
:1011F0006F81788589819A81AB81BC8148175907B5
:101200006A077B0760F08881E985FA85082E000C63
:10121000990B099588831D821E821F821886F8010A
:1012200085819681A781B0850596A11DB11D858315
:101230009683A783B0872B96CE15DF05B1F68091F4
:10124000EB028823E1F31092EB0283B7816083BF46
:10125000889583B78E7F83BFC6CF9CD008F481E08A
:1012600008950CD0D2C0CAD040F0C1D030F021F4E3
:101270005F3F19F0B3C05111FCC0B6C0D7D098F38E
:101280009923C9F35523B1F3951B550BBB27AA2707
:1012900062177307840738F09F5F5F4F220F331F79
:1012A000441FAA1FA9F333D00E2E3AF0E0E830D045
:1012B00091505040E695001CCAF729D0FE2F27D048
:1012C000660F771F881FBB1F261737074807AB0716
:1012D000B0E809F0BB0B802DBF01FF2793585F4F8B
:1012E0002AF09E3F510568F079C0C3C05F3FECF320
:1012F000983EDCF3869577956795B795F7959F5F50
:10130000C9F7880F911D9695879597F90895E1E0A3
:10131000660F771F881FBB1F621773078407BA0702
:1013200020F0621B730B840BBA0BEE1F88F7E0955D
:10133000089504D06894B1119CC008957FD088F0BE
:101340009F5790F0B92F9927B751A0F0D1F0660FB1
:10135000771F881F991F1AF0BA95C9F712C0B130CC
:1013600081F086D0B1E0089583C0672F782F882759
:10137000B85F39F0B93FCCF3869577956795B3950B
:10138000D9F73EF490958095709561957F4F8F4F7A
:101390009F4F0895990F0008550FAA0BE0E8FEEF44
:1013A00016161706E807F907C0F012161306E40729
:1013B000F50798F0621B730B840B950B39F40A2622
:1013C00061F0232B242B252B21F408950A2609F400
:1013D000A140A6958FEF811D811D089597F99F6704
:1013E00080E870E060E008959FEF80EC08950024AD
:1013F0000A941616170618060906089500240A947A
:1014000012161306140605060895092E0394000CFF
:1014100011F4882352F0BB0F40F4BF2B11F460FF8E
:1014200004C06F5F7F4F8F4F9F4F089557FD9058B7
:10143000440F551F59F05F3F71F04795880F97FB98
:10144000991F61F09F3F79F0879508951216130652
:101450001406551FF2CF4695F1DF08C01616170681
:101460001806991FF1CF86957105610508940895B6
:10147000E894BB2766277727CB0197F908958ADF81
:1014800008F48FEF08950BD0C0CFB1DF28F0B6DF9E
:1014900018F0952309F0A2CFA7CF1124EACFC6DF19
:1014A000A0F3959FD1F3950F50E0551F629FF00177
:1014B000729FBB27F00DB11D639FAA27F00DB11DD0
:1014C000AA1F649F6627B00DA11D661F829F222759
:1014D000B00DA11D621F739FB00DA11D621F839FE0
:1014E000A00D611D221F749F3327A00D611D231FB6
:1014F000849F600D211D822F762F6A2F11249F5704
:1015000050408AF0E1F088234AF0EE0FFF1FBB1F26
:10151000661F771F881F91505040A9F79E3F5105C5
:1015200070F05CCFA6CF5F3FECF3983EDCF386957E
:1015300077956795B795F795E7959F5FC1F7FE2B70
:10154000880F911D9695879597F90895EE0FFF1FC7
:101550000024001C0BBE0790F691E02D0994453243
:10156000510518F4423008F004C0FB011082CB0191
:101570000895BB274A3031F4992322F4BDE29095B7
:1015800081959F4F01C0BB27FB015527AA27880FD4
:10159000991FAA1FA41710F0A41B83955051B9F7E7
:1015A000A05DAA3308F0A95DA193009779F7B11166
:1015B000B1931192CB0100C0DC01FC01672F719146
:1015C0007723E1F7329704C07C916D937083629129
:1015D000AE17BF07C8F30895DC01CB01FC01F999F0
:1015E000FECF06C0F2BDE1BDF89A319600B40D926F
:1015F00041505040B8F70895DC01CB0102C02D9155
:1016000005D041505040D8F70895262FF999FECFC4
:101610001FBA92BD81BD20BD0FB6F894FA9AF99A0F
:0A1620000FBE01960895F894FFCF65
:10162A000010307E7E301000C0C0000000000000B4
:10163A000800040404040004040404000404040468
:10164A000004000000000101010203040404020274
:10165A00020101010203040404020202010101025F
:10166A000304040402020201010102030404040245
:10167A000202080000000100010000010000000051
:10168A00000100010000010000010000010001004A
:10169A000001000001000001000400000000000831
:1016AA0006060604040606060404040606060404DE
:1016BA0006060604040406060604040606060404CE
:1016CA0004060606040406060604040400000000D4
:1016DA000000DC430000DC430000DC430000C4439C
:1016EA000000B94300808A4300808A4300808A430D
:1016FA000000774300007743000077430000DC4393
:10170A000000DC430000DC430000C4430000B9438E
:10171A0000808A4300808A4300808A43000077431E
:10172A0000007743000077430000DC430000DC43FD
:10173A000000DC430000C4430000B94300808A4330
:10174A0000808A4300808A43000077430000774381
:10175A00000077430000DC430000DC430000DC4368
:10176A000000C4430000B94300808A4300808A43D2
:10177A0000808A43000077430000774300007743E4
:10178A004C696F6E68656172746564486967682040
:10179A0053636F7265506C617947686F7374205632
:1017AA006F696365731F191A1E1E1A191F0F08081D
:1017BA00080F01011F1F1F13131F1313130010001B
:1017CA0010101010101F0B0B0F0808081C1F111106
:1017DA00111111111F1F1504040404040419191905
:1017EA00191919191F010000004756004C006761BA
:0817FA006D65206F7665720039
:00000001FF
