:1000000045C0000060C000005EC000005CC0000091
:100010005AC0000058C0000056C0000054C0000084
:1000200052C0000050C000004EC000004CC0000094
:100030004AC000008AC0000046C0000044C0000062
:1000400042C0000040C000003EC000003CC00000B4
:100050003AC0000038C0000036C0000034C00000C4
:1000600032C0000030C000002EC000002CC00000D4
:100070002AC0000028C0000026C0000024C00000E4
:1000800022C0000020C000001EC0000011241FBEBE
:10009000CFEFD0E4DEBFCDBF11E0A0E0B1E0ECEBEC
:1000A000F4E000E00BBF02C007900D92A635B10747
:1000B000D9F721E0A6E5B1E001C01D92A337B20750
:1000C000E1F78AD1F9C19CCF8230910540F40099C3
:1000D00004C081E08093560108951092560108955E
:1000E00060934C0170934D0180934E0190934F01AA
:1000F00060935701709358018093590190935A016E
:1001000008958BE0809381008DE790E090938900C3
:100110008093880082E080936F0010928500109297
:10012000840080914C0190914D01A0914E01B091BD
:100130004F018093570190935801A0935901B093B8
:100140005A018FB780688FBF08951F920F920FB624
:100150000F9211248F939F93AF93BF938091570178
:1001600090915801A0915901B0915A010197A109AC
:10017000B1098093570190935801A0935901B0930E
:100180005A01892B8A2B8B2B99F481E080935B0198
:1001900080914C0190914D01A0914E01B0914F0181
:1001A0008093570190935801A0935901B0935A013D
:1001B000BF91AF919F918F910F900FBE0F901F90A5
:1001C0001895181619065CF00895000021503109A1
:1001D000E1F74F5F5F4F8417950719F4089540E0EA
:1001E00050E027E033E0F1CF40988BB9419A00000E
:1001F000419882E090E0E5CF089581E0F5CF089541
:10020000813118F48158F0CF08958155EDCF0895CC
:10021000409A8BB9419A0000419881E090E0D1CF9B
:1002200008950F931F93CF93DF93182FEB01E5DF12
:100230008881882351F001E0010F812FE1DF89914E
:10024000E7DF102F88818111F6CFDF91CF911F91C9
:100250000F9108950F931F93CF93DF9381309105F2
:1002600059F08330910589F00097A1F480915601EF
:10027000882309F1C2DF29C088E893E1A2DF8091D9
:1002800056018823C1F0B9DF42C080915601811127
:100290003EC050C081309105C1F024F4009709F0B0
:1002A0004CC009C08230910509F431C083309105FA
:1002B00009F043C03FC08EE190E083DF60E571E06C
:1002C00081E0AFDF80E090E038C08EE190E079DF40
:1002D00085E096DF86E09CDF89E79ADF86E098DF9D
:1002E00084E596DF87E094DF8DE492DF85E188DFA7
:1002F00080E08EDF81E08CDF82E08ADF83E088DFD0
:1003000084E086DF85E084DF81E090E016C08EE146
:1003100090E057DF83E074DFC0E0D1E00CE011E053
:10032000899176DFC017D107D9F780E069DF82E0D5
:1003300090E003C062DF83E090E0DF91CF911F91F6
:100340000F9108950F931F93CF93DF938B01883004
:1003500068F4880F880F880F805C46DFE801085F2B
:100360001F4F899155DFC017D107D9F780E83CDFCF
:10037000DF91CF911F910F91089584E690E021DFE6
:1003800088E332DF86E030DF8FE02EDF81E02CDF94
:100390008AE090E016DF64E471E080E0D3DF6CE394
:1003A00071E081E0CFDF64E371E082E0CBDF6CE2FB
:1003B00071E083E0C7DF64E271E084E0C3DF6CE1F9
:1003C00071E085E0BFDF64E171E086E0BBDF6CE0F7
:1003D00071E087E0B7CF089511B88FEF82B984B983
:1003E00015B88AB91BB887B918B8C7DFECE5F1E0D2
:1003F000108288E290E0A0E0B0E081839283A38342
:10040000B483158216821782108624E630E0328784
:100410002187138684879587A687B787108A118AD4
:10042000128A138A8AE291E0958B848B65E070E0F2
:1004300080E090E055DE65DE0F2EF2E7EF2EF1E072
:10044000FF2EF02DCCE5D1E08E014D815E816F81D4
:10045000788589819A81AB81BC81481759076A07E1
:100460007B0760F08881E985FA85082E000C990BDE
:10047000099588831D821E821F821886F801858156
:100480009681A781B0850596A11DB11D85839683B0
:10049000A783B0872B96CE15DF05B1F680915B015F
:1004A0008823E1F310925B0183B7816083BF889555
:0C04B00083B78E7F83BFC6CFF894FFCFC8
:1004BC0047686F737420566F696365731F191A1E32
:1004CC001E1A191F0F0808080F01011F1F1F1313F5
:1004DC001F13131300100010101010101F0B0B0F14
:1004EC000808081C1F1111111111111F1F150404EC
:1004FC0004040404191919191919191F0100000011
:06050C00737461727400BB
:00000001FF
