:1000000068C0000085C0000083C0000081C00000FF
:100010007FC000007DC000007BC0000079C00000F0
:1000200077C0000075C0000073C0000071C0000000
:100030006FC00000EBC000006BC0000069C0000092
:1000400067C0000065C0000063C0000061C0000020
:100050005FC000005DC000005BC0000059C0000030
:1000600057C0000055C0000053C0000051C0000040
:100070004FC000004DC000004BC0000049C0000050
:1000800047C0000045C0000043C0000075034C029B
:1000900053026B028802A502C302DD0201031203B0
:1000A000F7021D033C03580375039D03C303E903D3
:1000B000110437045D04AF04B404830410053C0547
:1000C0000F04AA06AC06AE06B006B206B406B60623
:1000D000B80611241FBECFEFD0E4DEBFCDBF15E0C0
:1000E000A0E0B1E0E2E3FAE100E00BBF02C007905C
:1000F0000D92A236B107D9F725E0A2E6B5E001C01E
:100100001D92A33FB207E1F70E94370A0C94170D26
:1001100077CF029768F4009906C081E080936A0562
:1001200081E090E0089510926A0581E090E00895E2
:1001300080E090E00895029768F4019906C081E09C
:100140008093690581E090E008951092690581E04F
:1001500090E0089580E090E00895029768F4029995
:1001600006C081E08093680581E090E008951092D8
:10017000680581E090E0089580E090E0089502979E
:1001800068F4039906C081E08093670581E090E000
:1001900008951092670581E090E0089580E090E076
:1001A000089560935D0570935E0580935F0590935D
:1001B000600560937C0570937D0580937E05909328
:1001C0007F0508958BE0809381008DE790E0909308
:1001D00089008093880082E080936F0010928500F0
:1001E0001092840080915D0590915E05A0915F055D
:1001F000B091600580937C0590937D05A0937E056A
:10020000B0937F058FB780688FBF08951F920F92BC
:100210000FB60F9211248F939F93AF93BF9380914A
:100220007C0590917D05A0917E05B0917F05019799
:10023000A109B10980937C0590937D05A0937E056B
:10024000B0937F05892B8A2B8B2B99F481E08093C7
:10025000800580915D0590915E05A0915F05B0914C
:10026000600580937C0590937D05A0937E05B093F7
:100270007F05BF91AF919F918F910F900FBE0F900F
:100280001F901895181619065CF00895000021506B
:100290003109E1F74F5F5F4F8417950719F408950F
:1002A00040E050E027E033E0F1CF40988BB9419A2D
:1002B0000000419882E090E0E5CF089581E0F5CF1D
:1002C0000895813118F48158F0CF08958155EDCF0C
:1002D0000895409A8BB9419A0000419881E090E0DE
:1002E000D1CF08950F931F93CF93DF93182FEB0176
:1002F000E5DF8881882351F001E0010F812FE1DFE4
:100300008991E7DF102F88818111F6CFDF91CF919E
:100310001F910F9108950F931F93CF93DF938B013C
:10032000883068F4880F880F880F805CBEDFE80192
:10033000085F1F4F8991CDDFC017D107D9F780E83B
:10034000B4DFDF91CF911F910F91089584E690E083
:1003500099DF88E3AADF86E0A8DF8FE0A6DF81E0EF
:10036000A4DF8AE090E08EDF65E575E080E0D3DF12
:100370006DE475E081E0CFDF65E475E082E0CBDF1E
:100380006DE375E083E0C7DF65E375E084E0C3DF1C
:100390006DE275E085E0BFDF65E275E086E0BBDF1A
:1003A0006DE175E087E0B7CF0895CF92DF92EF92CD
:1003B000FF926B017C019B01AC0160916205709121
:1003C000630580916405909165050E940C0B88235C
:1003D00009F446C020E030E0A901C701B6010E943F
:1003E0000C0B811104C085B5887085BD03C085B52F
:1003F000836085BD28E539E344E75FE3C701B601C3
:100400000E940C0B88231CF48FEF87BD20C020E0D6
:1004100034E244EF56E4C701B6010E941E0C1816E0
:1004200014F417BC14C020E030E040E053E4C701EE
:10043000B6010E94220C9B01AC0160E074E284EFE3
:100440009AE40E94100B0E94780B615067BD16BCA5
:10045000C0926205D0926305E0926405F092650552
:10046000FF90EF90DF90CF90089581E484BD8BE002
:1004700085BD60E070E0CB0198CF08950F931F9386
:10048000CF93DF93EC018D30910508F008C1FC019A
:10049000EA5BFF4F0C94850C80916705882309F473
:1004A00024C10CDF4AC180916905882331F0809115
:1004B0006805811106C002DF8CC180916805811139
:1004C00062C180916705882309F437C1F7DE81E0B6
:1004D00080937305A6C184E690E0D4DE8091670521
:1004E000882329F0EBDE81E0809372059AC1809128
:1004F0006905811107C080916805882309F443C10B
:10050000DDDE41C18091680581113DC1D7DE61C149
:1005100084E690E0B7DE80916705882329F0CEDE7F
:1005200081E0809372057DC180916905811107C0CA
:1005300080916805882309F44CC1C0DE24C18091F4
:100540006805811146C1BADE44C184E690E09ADEB6
:1005500080916705882311F0B1DE01C280916A05A0
:10056000882311F0ABDEE9C080916905811105C0D7
:100570008091680581117BC154C18091680581110A
:1005800050C19CDE9AC184E690E07CDE80916705D4
:10059000882311F093DEE3C180916A05882311F06E
:1005A0008DDECBC080916905882309F460C18091FC
:1005B000680581115CC182DE80C184E690E062DE64
:1005C00080916705882311F079DE9DC180916A05CD
:1005D000882311F073DEB1C08091690581116DC16E
:1005E00080916805882309F468C168DE40C184E60B
:1005F00090E048DE80916A05882309F484C15EDEBC
:1006000010C184E690E03EDE80916F058A3031F4BF
:100610002CDF54DE81E080936C05A6C18F5F809350
:100620006F059DC180916B05882309F49DC1809160
:100630006C05811199C142DEF3C18CE291E022DEAA
:1006400080916A0581110DC080916705811109C0F3
:1006500080916905811105C080916805882309F49E
:10066000DFC180916605811103C0C0E0D0E002C007
:10067000CCE0D0E023DE13C080916A0581110DC06B
:1006800080916705811109C080916905811105C0BC
:1006900080916805882309F4EFC110DE09C0CE30CF
:1006A000D10508F008C2FE01ED5AFF4F0C94850CED
:1006B00080E007DE109273051092720510926C05AF
:1006C00010926B05109271051092700510926F05D3
:1006D000109281051092D50510926E051092830537
:1006E00010926605C0E0D0E0E6C18EE190E0CADD80
:1006F00086E0E7DD86E0EDDD89E7EBDD86E0E9DD3C
:1007000084E5E7DD87E0E5DD8DE4E3DD86E1D9DD45
:1007100080E0DFDD81E0DDDD82E0DBDD83E0D9DD6F
:1007200084E0D7DD85E0D5DD80E2CBDD8EE7D1DD6D
:1007300080E0C7DDC1E0D0E0BEC18EE190E0A2DD87
:1007400082E0BFDD85EAC5DD83E0BBDDC1E1D5E048
:100750000DE115E08991BDDD0C171D07D9F783E187
:10076000B0DDC8EFD4E003E015E08991B2DD0C17ED
:100770001D07D9F780E1A5DD8EE7ABDD80E0A1DDC7
:10078000C2E0D0E098C184E690E07CDD82E099DDB3
:1007900085EA9FDD83E095DDC1E1D5E00DE115E05F
:1007A000899197DD0C171D07D9F783E18ADDC8EF22
:1007B000D4E003E015E089918CDDC017D107D9F7AB
:1007C00080E17FDD8EE785DD80E07BDDC3E0D0E08A
:1007D00072C184E690E056DD83E073DDC1E1D5E0CF
:1007E0000DE115E0899175DDC017D107D9F782E1D8
:1007F00068DD85EA6EDD83E164DDC8EFD4E003E007
:1008000015E0899166DDC017D107D9F780E259DD7F
:100810008EE75FDD80E055DDC4E0D0E04CC14EDD09
:100820004AC184E690E02EDD82E04BDD85EA51DDB1
:1008300083E047DDCDE0D5E001E115E0899149DDB8
:10084000C017D107D9F783E13CDDC3E0D5E00DE067
:1008500015E089913EDDC017D107D9F780E131DD80
:100860008EE737DD80E02DDDC5E0D0E024C184E6F1
:1008700090E008DD82E025DD85EA2BDD83E021DDE7
:10088000CDE0D5E001E115E0899123DDC017D10766
:10089000D9F783E116DDC3E0D5E00DE015E08991DD
:1008A00018DDC017D107D9F780E10BDD8EE711DD28
:1008B00080E007DDC6E0D0E0FEC084E690E0E2DC48
:1008C00083E0FFDCCDE0D5E001E115E0899101DDB9
:1008D000C017D107D9F782E1F4DC85EAFADC83E1BD
:1008E000F0DCC3E0D5E00DE015E08991F2DCC01743
:1008F000D107D9F780E2E5DC8EE7EBDC80E0E1DCD4
:10090000C7E0D0E0D8C084E690E0BCDC43E050E033
:1009100061E070E08FEE95E00E94F00C43E050E063
:1009200067E070E08BED95E00E94F00C809173051C
:10093000882321F06FEE75E081E0D4DC80917205B0
:10094000882321F06BED75E081E0CCDC80E2B9DC3E
:100950008FE7BFDC80E0B5DCCAE0D0E0ACC080E06F
:10096000B0DCC8E0D0E0A7C080917305882311F106
:100970004AE050E066ED75E0809170059091710558
:10098000EAD766ED75E081E0ADDC8FEE95E0C6D785
:1009900020917005309171058217930758F443E058
:1009A00050E061E070E086ED95E00E94000D81E08E
:1009B0008093660580917205882311F14AE050E02A
:1009C00061ED75E08091700590917105C4D761ED7E
:1009D00075E081E087DC8BED95E0A0D72091700574
:1009E000309171058217930758F443E050E067E0B7
:1009F00070E081ED95E00E94000D81E08093660536
:100A000081E15FDCC8E0D5E00DE015E0899161DCB3
:100A1000C017D107D9F780E054DCC9E0D0E04BC063
:100A200080917305882361F04AE050E066ED75E03F
:100A300080917005909171058ED7BC0181E052DCE8
:100A400080917205882321F061ED75E081E04ADC38
:100A500081E137DCCAEED4E008EF14E0899139DC9B
:100A6000C017D107D9F780E22CDC8EE732DC80E0BA
:100A700028DCCBE0D0E01FC081E023DCC7EED4E06F
:100A8000888127DC898125DC8A8123DC81E119DCEE
:100A9000C3E0D5E00DE015E089911BDCC017D1075C
:100AA000D9F781E216DC80E20CDC8EE712DC80E014
:100AB00008DCCCE0D0E0CE01DF91CF911F910F9107
:100AC000089514BC15BC0895CF93DF93EC010097F3
:100AD00019F0019751F00FC091E080E020916C0572
:100AE000211101C090E0C92FD82F209721F0C130EB
:100AF000D10561F0A3C01092D50510926E05109239
:100B0000810510928305C0E0D0E098C08091730504
:100B1000882309F447C020918305822F90E0FC01CF
:100B2000ED56FC4F408130916E05341790F4880FDC
:100B3000991F880F991FFC01E952FC4F6081718158
:100B40008281938132DC80916E058F5F80936E0588
:100B500029C0FC01E25BFC4F9081809181058917DF
:100B600050F460E070E0CB0120DC809181058F5F64
:100B70008093810517C010926E0510928105822F17
:100B800090E040910803509109038417950720F4E1
:100B90002F5F2093830506C094DF81E080936B056F
:100BA00010926C0580917205882309F447C020914A
:100BB0008305822F90E0FC01EA56FE4F4081309180
:100BC0006E05341790F4880F991F880F991FFC0148
:100BD000E052FE4F6081718182819381E6DB8091DA
:100BE0006E058F5F80936E0529C0FC01E45BFE4FAC
:100BF000908180918105891750F460E070E0CB010D
:100C0000D4DB809181058F5F8093810517C010929E
:100C10006E0510928105822F90E040910001509165
:100C200001018417950720F42F5F2093830506C0E8
:100C300048DF81E080936B0510926C05CE01DF9157
:100C4000CF91089547E050E061E070E090E02A988D
:100C50009B01042E02C0220F331F0A94E2F72823BF
:100C60003923042E02C0359527950A94E2F72223F2
:100C700011F0289A01C028982A9A4150510938F752
:100C80000895CF93DF938230D0F4C42FD62F2998C4
:100C9000882361F002C0299A12C0862FD3DF8C2FDF
:100CA000D1DF80E0CFDF80E0CDDFF5CF80E0CADFAD
:100CB00080E0C8DF8D2FC6DF8C2FC4DFECCFDF9143
:100CC000CF910895623018F4462F6CE0DACF089582
:100CD000603118F4462F6AE0D4CF0895623018F4DA
:100CE000462F6FE0CECF0895683018F4462F6BE0A2
:100CF000C8CF0895462F69E0C4CF0895462F61E01C
:100D0000C0CF0895462F62E0BCCF0895462F63E020
:100D1000B8CF0895462F64E0B4CF0895462F65E01C
:100D2000B0CF0895462F66E0ACCF0895462F67E018
:100D3000A8CF0895462F68E0A4CF08950F931F937E
:100D4000062F10E008301105A0F4642FF801EF59C8
:100D5000FF4FDBC5D3DF0DC0D5DF0BC0D7DF09C028
:100D6000D9DF07C0DBDF05C0DDDF03C0DFDF01C087
:100D7000E1DF1F910F910895209A229A219A2898D5
:100D80002A9829980895FF920F931F93CF93DF938A
:100D9000F82EC0E0D0E0082F10E0000F111F000F68
:100DA000111F000F111F01521A4FF801EC0FFD1F08
:100DB000108240E06C2F8F2DC1DF2196C830D10505
:100DC000A1F7DF91CF911F910F91FF900895CF92DE
:100DD000DF92FF920F931F93CF93DF93823010F532
:100DE000F82E062F172FC0E0D0E0C82ED12CC60158
:100DF000880F991F880F991F880F991F9C012152F6
:100E00003A4F6901F801D8018D918D01D601AC0FDF
:100E1000BD1F8C9340816C2F8F2D90DF2196C830A1
:100E2000D10581F7DF91CF911F910F91FF90DF9056
:100E3000CF900895823080F4683070F4E82FF0E0AD
:100E4000EE0FFF1FEE0FFF1FEE0FFF1FE152FA4FD5
:100E5000E60FF11D408372CF0895603468F5362F98
:100E60003770E82FF0E0EE0FFF1FEE0FFF1FEE0FC1
:100E7000FF1FE152FA4FE30FF11D2081442369F077
:100E8000962F96959695969541E050E002C0440FB6
:100E9000551F9A95E2F7422B0DC0962F9695969581
:100EA000969541E050E002C0440F551F9A95E2F735
:100EB00040954223632FBECF089541E0CECF0895E1
:100EC00040E0CBCF08958130910549F0049709F0B7
:100ED00099C180916C05882309F494C1AAC28AE063
:100EE00090E0D0D980916B05882309F4A2C280914B
:100EF0006C05882309F486C19CC28081880F819388
:100F00002E173F07D1F780917305882309F4B7C0E6
:100F10008091830590E02091D505FC01ED56FC4FB2
:100F20003081231708F09BC0FC01E65FFC4F8081F5
:100F30008093DA05813019F5E4E7F5E0808181607E
:100F4000808381818160818380916A05882309F48F
:100F500082C08091670581117EC0809169058111F1
:100F60007AC080916805811176C08091700590915A
:100F70007105019690937105809370056CC0823065
:100F800019F5E4E7F5E082818160828383818160E5
:100F9000838380916A0581115EC08091670581110C
:100FA0005AC080916905882309F455C0809168056D
:100FB000811151C0809170059091710501969093B7
:100FC00071058093700547C0833011F5E4E7F5E0C3
:100FD00084818160848385818160858380916A05B5
:100FE000811139C080916705811135C080916905F3
:100FF000811131C080916805882369F18091700565
:10100000909171050196909371058093700523C0AE
:10101000843009F5E4E7F5E0868181608683878185
:101020008160878380916A05811115C08091670571
:10103000882389F08091690581110DC08091680530
:10104000811109C08091700590917105019690936E
:101050007105809370052F5F2093D50510C02091F6
:101060008105FC01E25BFC4F8081281720F42F5F93
:101070002093810504C01092D505109281058091BE
:101080007205882309F4B7C08091830590E0209110
:10109000D505FC01EA56FE4F3081231708F09BC0AE
:1010A000FC01EE5FFE4F80818093DA05813019F5F7
:1010B000E4E7F5E0808181608083818181608183C4
:1010C00080916A05882309F482C0809167058111A7
:1010D0007EC08091690581117AC080916805811177
:1010E00076C080917005909171050196909371057D
:1010F000809370056CC0823019F5E4E7F5E08281D9
:101100008160828383818160838380916A058111FC
:101110005EC08091670581115AC08091690588235E
:1011200009F455C080916805811151C08091700506
:10113000909171050196909371058093700547C059
:10114000833011F5E4E7F5E0848181608483858153
:101150008160858380916A05811139C0809167051E
:10116000811135C080916905811131C08091680578
:10117000882369F180917005909171050196909393
:1011800071058093700523C0843009F5E4E7F5E02C
:1011900086818160868387818160878380916A05EB
:1011A000811115C080916705882389F080916905B8
:1011B00081110DC080916805811109C08091700571
:1011C00090917105019690937105809370052F5F42
:1011D0002093D50510C020918105FC01E45BFE4FF2
:1011E0008081281720F42F5F2093810504C010927E
:1011F000D5051092810564E775E080E0E8DD81E0C7
:1012000090E0089580916A05882309F446C087E23A
:1012100080936D0567E28091D5054FDE60916D0585
:1012200068508091D50549DE2FE88FE591E0215087
:1012300080409040E1F700C0000060916D05615072
:1012400060936D05603238F72FE986E891E0215010
:1012500080409040E1F700C0000087E280936D0578
:1012600067E28091D5052CDE60916D056850809114
:10127000D50526DE2FE88FE591E021508040904093
:10128000E1F700C0000060916D05615060936D054D
:10129000603238F784E090E00895809167058823F4
:1012A00009F446C080E280936D0560E28091D50527
:1012B00004DE60916D0568508091D505FEDD2FE854
:1012C0008FE591E0215080409040E1F700C00000A0
:1012D00060916D056F5F60936D05683238F32FE99B
:1012E00086E891E0215080409040E1F700C0000086
:1012F00080E280936D0560E28091D505E1DD60912B
:101300006D0568508091D505DBDD2FE88FE591E014
:10131000215080409040E1F700C0000060916D05D1
:101320006F5F60936D05683238F384E090E0089554
:10133000809169058823D1F187E080936D0567E08E
:101340008091D505BADD2FE88FE591E021508040EE
:101350009040E1F700C0000060916D05685F609308
:101360006D056C3368F32FE986E891E021508040E9
:101370009040E1F700C0000087E080936D0567E0D2
:101380008091D5059DDD2FE88FE591E021508040CB
:101390009040E1F700C0000060916D05685F6093C8
:1013A0006D056C3368F384E090E0089580916805E2
:1013B0008823D1F180E480936D0560E48091D505A8
:1013C0007CDD2FE88FE591E0215080409040E1F7EF
:1013D00000C0000060916D05685060936D0561115B
:1013E000EDCF2FE986E891E0215080409040E1F771
:1013F00000C0000080E480936D0560E48091D50515
:101400005FDD2FE88FE591E0215080409040E1F7CB
:1014100000C0000060916D05685060936D0561111A
:10142000EDCF84E090E0089580E0ADDC84E090E0D2
:101430000895E4E7F5E02CE735E05FCDCF939CDC41
:10144000C0E061E08C2F3EDC60E08C2F47DC60E088
:101450008C2F50DC6FE08C2F3BDC67E08C2F44DC62
:101460008C2F91DCCF5FC23061F7CF91089511B816
:101470008FEF82B984B915B88AB91BB887B918B883
:101480000E94A601DBDF61E080E022DC43E050E067
:1014900061E070E08FEE95E0A3D243E050E067E0BA
:1014A00070E08BED95E09CD2E4E8F5E0108288E2F4
:1014B00090E0A0E0B0E081839283A383B48315829F
:1014C00016821782108629E830E03287218713863A
:1014D00084879587A687B787108A118A128A138A0C
:1014E0002BE930E0358B248B168A878B908FA18F68
:1014F000B28F138E148E158E168E2DEA30E030A327
:10150000278F11A282A393A3A4A3B5A316A217A207
:1015100010A611A62FEB30E033A722A714A685A7AB
:1015200096A7A7A7B0AB11AA12AA13AA14AA8EE372
:1015300092E096AB85AB17AA89E190E0A0E0B0E01D
:1015400080AF91AFA2AFB3AF14AE15AE16AE17AE6B
:1015500084E695E09093C5058093C40584E080936C
:10156000C6058DE290E0A0E0B0E08093C7059093BF
:10157000C805A093C905B093CA051092CB05109277
:10158000CC051092CD051092CE0583E697E090939E
:10159000D0058093CF0565E070E080E090E00E9488
:1015A000D1000E94E2000F2EF1EDEF2EF5E0FF2EAC
:1015B000F02DC4E8D5E08E014D815E816F81788584
:1015C00089819A81AB81BC81481759076A077B07DB
:1015D00060F08881E985FA85082E000C990B099541
:1015E00088831D821E821F821886F801858196815C
:1015F000A781B0850596A11DB11D85839683A7831C
:10160000B0872B96CE15DF05B1F680918005882333
:10161000E1F310928005CDCF9CD008F481E00895CD
:101620000CD0D2C0CAD040F0C1D030F021F45F3F1E
:1016300019F0B3C05111FCC0B6C0D7D098F39923AC
:10164000C9F35523B1F3951B550BBB27AA27621786
:101650007307840738F09F5F5F4F220F331F441FCB
:10166000AA1FA9F333D00E2E3AF0E0E830D0915003
:101670005040E695001CCAF729D0FE2F27D0660FF0
:10168000771F881FBB1F261737074807AB07B0E82F
:1016900009F0BB0B802DBF01FF2793585F4F2AF045
:1016A0009E3F510568F079C0C3C05F3FECF3983EA0
:1016B000DCF3869577956795B795F7959F5FC9F7A2
:1016C000880F911D9695879597F90895E1E0660F2B
:1016D000771F881FBB1F621773078407BA0720F0A4
:1016E000621B730B840BBA0BEE1F88F7E09508950D
:1016F00004D06894B1119CC008957FD088F09F57A2
:1017000090F0B92F9927B751A0F0D1F0660F771F4D
:10171000881F991F1AF0BA95C9F712C0B13081F02D
:1017200086D0B1E0089583C0672F782F8827B85FEF
:1017300039F0B93FCCF3869577956795B395D9F78E
:101740003EF490958095709561957F4F8F4F9F4F98
:101750000895990F0008550FAA0BE0E8FEEF161642
:101760001706E807F907C0F012161306E407F50795
:1017700098F0621B730B840B950B39F40A2661F009
:10178000232B242B252B21F408950A2609F4A140AC
:10179000A6958FEF811D811D089597F99F6780E8B9
:1017A00070E060E008959FEF80EC089500240A94B3
:1017B0001616170618060906089500240A9412162C
:1017C0001306140605060895092E0394000C11F45F
:1017D000882352F0BB0F40F4BF2B11F460FF04C00C
:1017E0006F5F7F4F8F4F9F4F089557FD9058440F65
:1017F000551F59F05F3F71F04795880F97FB991F70
:1018000061F09F3F79F0879508951216130614062C
:10181000551FF2CF4695F1DF08C0161617061806B9
:10182000991FF1CF86957105610508940895E89494
:10183000BB2766277727CB0197F908958ADF08F43D
:101840008FEF08950BD0C0CFB1DF28F0B6DF18F0CE
:10185000952309F0A2CFA7CF1124EACFC6DFA0F3CA
:10186000959FD1F3950F50E0551F629FF001729F35
:10187000BB27F00DB11D639FAA27F00DB11DAA1F54
:10188000649F6627B00DA11D661F829F2227B00DA1
:10189000A11D621F739FB00DA11D621F839FA00D2C
:1018A000611D221F749F3327A00D611D231F849F7C
:1018B000600D211D822F762F6A2F11249F575040D3
:1018C0008AF0E1F088234AF0EE0FFF1FBB1F661F6E
:1018D000771F881F91505040A9F79E3F510570F027
:1018E0005CCFA6CF5F3FECF3983EDCF3869577950F
:1018F0006795B795F795E7959F5FC1F7FE2B880F22
:10190000911D9695879597F90895EE0FFF1F002476
:10191000001C0BBE0790F691E02D0994FC0188276E
:101920009927E89421912032E9F3293010F02E30E4
:10193000C8F32B3239F02D3231F4689403C01FD034
:10194000820F911D219120532A30C8F31EF49095E7
:1019500081959F4F08954532510518F4423008F0A3
:1019600004C0FB011082CB010895BB274A3031F43B
:10197000992322F4BDE2909581959F4F09C07AE0AA
:10198000979F902D879F802D910D11240895BB273F
:10199000FB015527AA27880F991FAA1FA41710F02B
:1019A000A41B83955051B9F7A05DAA3308F0A95D37
:1019B000A193009779F7B111B1931192CB0100C0B7
:1019C000DC01FC01672F71917723E1F7329704C0A6
:1019D0007C916D9370836291AE17BF07C8F3089531
:1019E000DC01CB01FC01F999FECF06C0F2BDE1BDDF
:1019F000F89A319600B40D9241505040B8F70895CE
:101A0000DC01CB0102C02D9105D041505040D8F7E8
:101A10000895262FF999FECF1FBA92BD81BD20BD32
:101A20000FB6F894FA9AF99A0FBE01960895F894B1
:021A3000FFCFE6
:101A32004A0000010101010202020303040404013D
:101A42000101020202030304040401010102020271
:101A5200030304040401010101020202030304045A
:101A62000401010102020203030404040101010250
:101A72000202030304040401010101000800000042
:101A82000000000000000000000000000000000054
:101A92000000000000000000000000000000000044
:101AA2000000000000000000000000000000000034
:101AB2000000000000000000000000000000000024
:101AC20000000000000808040404040204040202E6
:101AD20002040402020204040202020204040202D8
:101AE20002040402020202040404040202020404C4
:101AF20002020204040202020404020202020404B8
:101B0200020202040402020202040404040404089D
:101B12000000000000809B4300809B4300809B43A9
:101B220000809B430000E9430000E9430000E943D1
:101B320000C0124400C0124400801B4400801B44B9
:101B420000801B440000C4430000C4430000C4439F
:101B52000000E9430000E9430000E94300C01244E9
:101B620000C0124400801B4400801B4400801B44C0
:101B72000000C4430000C4430000C4430000E94322
:101B82000000E9430000E94300C0124400C01244CF
:101B920000801B4400801B4400801B4400809B4348
:101BA20000809B4300809B4300809B430000E943ED
:101BB2000000E9430000E94300C0124400C012449F
:101BC20000801B4400801B4400801B440000C4436F
:101BD2000000C4430000C4430000E9430000E9439D
:101BE2000000E94300C0124400C0124400801B44BC
:101BF20000801B4400801B440000C4430000C44317
:101C02000000C4430000E9430000E9430000E94347
:101C120000C0124400C0124400801B4400801B44D8
:101C220000801B4400809B4300809B4300809B43B9
:101C320000809B43000000004400000101010203F8
:101C42000404040202020101010203040404020268
:101C52000201010102030404040202020101010261
:101C62000304040402020201010102030404040247
:101C7200020201010102030404040202020008003C
:101C82000000000000000000000000000000000052
:101C92000000000000000000000000000000000042
:101CA2000000000000000000000000000000000032
:101CB2000000000000000000000000000000000022
:101CC20000000808060606040406060604040406C4
:101CD20006060404060606040404060606040406B0
:101CE20006060404040606060404060606040404A2
:101CF2000606060404060606040404060606040490
:101D020006060604040408000000000000DC43008C
:101D120000DC430000DC430000C4430000B9430080
:101D2200808A4300808A4300808A43000077430010
:101D3200007743000077430000DC430000DC4300EF
:101D420000DC430000C4430000B94300808A430022
:101D5200808A4300808A4300007743000077430073
:101D62000077430000DC430000DC430000DC43005A
:101D720000C4430000B94300808A4300808A4300C4
:101D8200808A4300007743000077430000774300D6
:101D920000DC430000DC430000DC430000C44300DD
:101DA20000B94300808A4300808A4300808A43004E
:101DB20000774300007743000077430000DC4300D4
:101DC20000DC430000DC430000C4430000B94300D0
:101DD200808A4300808A4300808A43000077430060
:101DE200007743000077430000DC430000DC43003F
:101DF20000DC430000C4430000B94300808A430072
:101E0200808A4300808A43000077430000774300C2
:101E1200007743000000004E6577506F696E74735F
:101E22002053636F726564214C696F6E68656172DD
:101E3200746564486967682053636F7265506C61AA
:101E42007947686F737420566F696365731F191A37
:101E52001E1E1A191F0F0808080F01011F1F1F134A
:101E6200131F13131300100010101010101F0B0B70
:101E72000F0808081C1F1111111111111F1F150441
:101E82000404040404191919191919191F0100006D
:021E920000004E
:00000001FF
