S00C00006D61696E2E7372656373
S113000068C0000085C0000083C0000081C00000FB
S11300107FC000007DC000007BC0000079C00000EC
S113002077C0000075C0000073C0000071C00000FC
S11300306FC00000EBC000006BC0000069C000008E
S113004067C0000065C0000063C0000061C000001C
S11300505FC000005DC000005BC0000059C000002C
S113006057C0000055C0000053C0000051C000003C
S11300704FC000004DC000004BC0000049C000004C
S113008047C0000045C0000043C0000075034C0297
S113009053026B028802A502C302DD0201031203AC
S11300A0F7021D033C03580375039D03C303E903CF
S11300B0110437045D04AF04B40483040F053B0545
S11300C00F049B069D069F06A106A306A506A70688
S11300D0A90611241FBECFEFD0E4DEBFCDBF14E0CC
S11300E0A0E0B1E0ECE0FAE100E00BBF02C0079051
S11300F00D92A831B107D9F724E0A8E1B4E001C01A
S11301001D92A93AB207E1F70E94280A0C94040D43
S113011077CF029768F4009906C081E080932004A9
S113012081E090E008951092200481E090E0089529
S113013080E090E00895029768F4029906C081E097
S113014080931F0481E090E0089510921F0481E0E1
S113015090E0089580E090E00895029768F4019992
S113016006C081E080931E0481E090E0089510921F
S11301701E0481E090E0089580E090E008950297E5
S113018068F4039906C081E080931D0481E090E047
S1130190089510921D0481E090E0089580E090E0BD
S11301A00895609314047093150480931604909337
S11301B0170460933204709333048093340490934F
S11301C0350408958BE0809381008DE790E090934F
S11301D089008093880082E080936F0010928500EC
S11301E0109284008091140490911504A091160437
S11301F0B09117048093320490933304A093340491
S1130200B09335048FB780688FBF08951F920F9203
S11302100FB60F9211248F939F93AF93BF93809146
S1130220320490913304A0913404B09135040197C1
S1130230A109B1098093320490933304A093340448
S1130240B0933504892B8A2B8B2B99F481E080930E
S113025036048091140490911504A0911604B09171
S113026017048093320490933304A0933404B0931E
S11302703504BF91AF919F918F910F900FBE0F9056
S11302801F901895181619065CF008950000215067
S11302903109E1F74F5F5F4F8417950719F408950B
S11302A040E050E027E033E0F1CF40988BB9419A29
S11302B00000419882E090E0E5CF089581E0F5CF19
S11302C00895813118F48158F0CF08958155EDCF08
S11302D00895409A8BB9419A0000419881E090E0DA
S11302E0D1CF08950F931F93CF93DF93182FEB0172
S11302F0E5DF8881882351F001E0010F812FE1DFE0
S11303008991E7DF102F88818111F6CFDF91CF919A
S11303101F910F9108950F931F93CF93DF938B0138
S1130320883068F4880F880F880F805CBEDFE8018E
S1130330085F1F4F8991CDDFC017D107D9F780E837
S1130340B4DFDF91CF911F910F91089584E690E07F
S113035099DF88E3AADF86E0A8DF8FE0A6DF81E0EB
S1130360A4DF8AE090E08EDF6CE074E080E0D3DF0D
S113037064E074E081E0CFDF6CEF73E082E0CBDF18
S113038064EF73E083E0C7DF6CEE73E084E0C3DF07
S113039064EE73E085E0BFDF6CED73E086E0BBDF05
S11303A064ED73E087E0B7CF0895CF92DF92EF92C8
S11303B0FF926B017C019B01AC0160911804709168
S11303C0190480911A0490911B040E94F90A88234D
S11303D009F446C020E030E0A901C701B6010E943B
S11303E0F90A811104C085B5887085BD03C085B53F
S11303F0836085BD28E539E344E75FE3C701B601BF
S11304000E94F90A88231CF48FEF87BD20C020E0E6
S113041034E244EF56E4C701B6010E940B0C1816EF
S113042014F417BC14C020E030E040E053E4C701EA
S1130430B6010E940F0C9B01AC0160E074E284EFF2
S11304409AE40E94FD0A0E94650B615067BD16BCC8
S1130450C0921804D0921904E0921A04F0921B047A
S1130460FF90EF90DF90CF90089581E484BD8BE0FE
S113047085BD60E070E0CB0198CF08950F931F9382
S1130480CF93DF93EC018D30910508F008C1FC0196
S1130490EA5BFF4F0C94720C80911D04882309F4CD
S11304A024C10CDF4AC180911F04882331F080915C
S11304B01E04811106C002DF8CC180911E048111CB
S11304C062C180911D04882309F437C1F7DE81E0FD
S11304D080932904A6C184E690E0D4DE80911D04B3
S11304E0882329F0EBDE81E0809328049AC180916F
S11304F01F04811107C080911E04882309F443C19D
S1130500DDDE41C180911E0481113DC1D7DE61C190
S113051084E690E0B7DE80911D04882329F0CEDEC6
S113052081E0809328047DC180911F04811107C05C
S113053080911E04882309F44CC1C0DE24C180913B
S11305401E04811146C1BADE44C184E690E09ADEFD
S113055080911D04882311F0B1DE01C28091200432
S1130560882311F0ABDEE9C080911F04811105C01E
S113057080911E0481117BC154C180911E0481119C
S113058050C19CDE9AC184E690E07CDE80911D041B
S1130590882311F093DEE3C180912004882311F0B5
S11305A08DDECBC080911F04882309F460C1809143
S11305B01E0481115CC182DE80C184E690E062DEAB
S11305C080911D04882311F079DE9DC1809120045F
S11305D0882311F073DEB1C080911F0481116DC1B5
S11305E080911E04882309F468C168DE40C184E652
S11305F090E048DE80912004882309F484C15EDE03
S113060010C184E690E03EDE809125048A3031F406
S11306102CDF54DE81E080932204A6C18F5F809397
S113062025049DC180912104882309F49DC18091F2
S11306302204811199C142DEF2C18CE291E022DEF2
S11306408091200481110DC080911D04811109C085
S113065080911F04811105C080911E04882309F430
S1130660DEC180911C04811103C0C0E0D0E002C04F
S1130670CCE0D0E023DE13C08091200481110DC0B2
S113068080911D04811109C080911F04811105C04E
S113069080911E04882309F4EEC110DE09C0CE3017
S11306A0D10508F007C2FE01ED5AFF4F0C94720CFD
S11306B080E007DE1092290410922804109222048C
S11306C010922104109227041092260410922504FB
S11306D01092370410928B0410922404109239045F
S11306E010921C04C0E0D0E0E5C18EE190E0CADDC8
S11306F085E0E7DD86E0EDDD89E7EBDD86E0E9DD39
S113070084E5E7DD87E0E5DD8DE4E3DD85E1D9DD42
S113071080E0DFDD81E0DDDD82E0DBDD83E0D9DD6B
S113072084E0D7DD85E0D5DD80E2CBDD8EE7D1DD69
S113073080E0C7DDC1E0D0E0BDC18EE190E0A2DD84
S113074082E0BFDD85EAC5DD83E0BBDDC8ECD3E034
S113075004ED13E08991BDDD0C171D07D9F783E182
S1130760B0DDCFEAD3E00AEB13E08991B2DD0C17D8
S11307701D07D9F780E1A5DD8EE7ABDD80E0A1DDC3
S1130780C2E0D0E097C184E690E07CDD82E099DDB0
S113079085EA9FDD83E095DDC8ECD3E004ED13E04A
S11307A0899197DD0C171D07D9F783E18ADDCFEA1C
S11307B0D3E00AEB13E089918CDDC017D107D9F798
S11307C080E17FDD8EE785DD80E07BDDC3E0D0E086
S11307D071C184E690E056DD83E073DDC8ECD3E0BC
S11307E004ED13E0899175DDC017D107D9F782E1D3
S11307F068DD85EA6EDD83E164DDCFEAD3E00AEBF0
S113080013E0899166DDC017D107D9F780E259DD7D
S11308108EE75FDD80E055DDC4E0D0E04BC14EDD06
S113082049C184E690E02EDD82E04BDD85EA51DDAE
S113083083E047DDC4ECD3E008EC13E0899149DDA3
S1130840C017D107D9F783E13CDDCAEBD3E004EC50
S113085013E089913EDDC017D107D9F780E131DD7E
S11308608EE737DD80E02DDDC5E0D0E023C184E6EE
S113087090E008DD82E025DD85EA2BDD83E021DDE3
S1130880C4ECD3E008EC13E0899123DDC017D10751
S1130890D9F783E116DDCAEBD3E004EC13E08991C8
S11308A018DDC017D107D9F780E10BDD8EE711DD24
S11308B080E007DDC6E0D0E0FDC084E690E0E2DC45
S11308C083E0FFDCC4ECD3E008EC13E0899101DDA4
S11308D0C017D107D9F782E1F4DC85EAFADC83E1B9
S11308E0F0DCCAEBD3E004EC13E08991F2DCC0172E
S11308F0D107D9F780E2E5DC8EE7EBDC80E0E1DCD0
S1130900C7E0D0E0D7C084E690E0BCDC43E050E030
S113091061E070E085EA94E00E94DD0C43E050E081
S113092067E070E081E994E00E94DD0C8091290485
S1130930882321F065EA74E081E0D4DC8091280406
S1130940882321F061E974E081E0CCDC80E2B9DC49
S11309508FE7BFDC80E0B5DCCAE0D0E0ABC080E06C
S1130960B0DCC8E0D0E0A6C080912904882311F14E
S11309704AE050E06CE874E08091260490912704EA
S1130980D7D76CE874E081E0ADDC85EA94E0B3D7B6
S113099020912604309127048217930758F443E0EA
S11309A050E061E070E08CE894E00E94ED0C81E09E
S11309B080931C0480912804882309F14AE050E0C4
S11309C067E874E08091260490912704B1D767E822
S11309D074E081E087DC81E994E08DD720912604DE
S11309E0309127048217930750F443E050E067E006
S11309F070E087E894E0F1D781E080931C0481E102
S1130A0060DCCFEBD3E004EC13E0899162DCC01727
S1130A10D107D9F780E055DCC9E0D0E04BC0809124
S1130A202904882361F04AE050E06CE874E0809186
S1130A302604909127047CD7BC0181E053DC80918B
S1130A402804882321F067E874E081E04BDC81E12D
S1130A5038DCC1EAD3E00FEA13E089913ADCC0172D
S1130A60D107D9F780E22DDC8EE733DC80E029DC86
S1130A70CBE0D0E01FC081E024DCCEE9D3E0888164
S1130A8028DC898126DC8A8124DC81E11ADCCAEB3A
S1130A90D3E004EC13E089911CDCC017D107D9F72B
S1130AA081E217DC80E20DDC8EE713DC80E009DCF8
S1130AB0CCE0D0E0CE01DF91CF911F910F9108954A
S1130AC014BC15BC0895CF93DF93EC01009719F083
S1130AD0019751F00FC091E080E020912204211190
S1130AE001C090E0C92FD82F209721F0C130D10543
S1130AF061F095C010928B04109224041092370474
S1130B0010923904C0E0D0E08AC08091290488237F
S1130B1009F440C020913904822F90E0FC01E35491
S1130B20FD4F408130912404341790F4880F991FAD
S1130B30880F991FFC01E651FD4F6081718182810C
S1130B40938133DC809124048F5F8093240422C03A
S1130B50FC01E057FD4F908180913704891750F4D0
S1130B6060E070E0CB0121DC809137048F5F8093DB
S1130B70370410C01092240410923704283220F451
S1130B802F5F2093390406C09BDF81E0809321040A
S1130B901092220480912804882309F440C02091F3
S1130BA03904822F90E0FC01E65DFE4F40813091D4
S1130BB02404341790F4880F991F880F991FFC019F
S1130BC0E15CFE4F6081718182819381EEDB8091D3
S1130BD024048F5F8093240422C0FC01EB5EFE4F4B
S1130BE0908180913704891750F460E070E0CB0164
S1130BF0DCDB809137048F5F8093370410C0109240
S1130C00240410923704243120F42F5F20933904F4
S1130C1006C056DF81E08093210410922204CE01A5
S1130C20DF91CF91089547E050E061E070E090E0FB
S1130C302A989B01042E02C0220F331F0A94E2F764
S1130C4028233923042E02C0359527950A94E2F708
S1130C50222311F0289A01C028982A9A4150510958
S1130C6038F70895CF93DF938230D0F4C42FD62F72
S1130C702998882361F002C0299A12C0862FD3DFF5
S1130C808C2FD1DF80E0CFDF80E0CDDFF5CF80E0B7
S1130C90CADF80E0C8DF8D2FC6DF8C2FC4DFECCF26
S1130CA0DF91CF910895623018F4462F6CE0DACFCB
S1130CB00895603118F4462F6AE0D4CF0895623065
S1130CC018F4462F6FE0CECF0895683018F4462FFD
S1130CD06BE0C8CF0895462F69E0C4CF0895462F2E
S1130CE061E0C0CF0895462F62E0BCCF0895462F3F
S1130CF063E0B8CF0895462F64E0B4CF0895462F3B
S1130D0065E0B0CF0895462F66E0ACCF0895462F36
S1130D1067E0A8CF0895462F68E0A4CF08950F9305
S1130D201F93062F10E008301105A0F4642FF8017A
S1130D30EF59FF4FD7C5D3DF0DC0D5DF0BC0D7DFC9
S1130D4009C0D9DF07C0DBDF05C0DDDF03C0DFDF9B
S1130D5001C0E1DF1F910F910895209A229A219AF0
S1130D6028982A9829980895FF920F931F93CF9358
S1130D70DF93F82EC0E0D0E0082F10E0000F111F21
S1130D80000F111F000F111F0B561B4FF801EC0F22
S1130D90FD1F108240E06C2F8F2DC1DF2196C830DB
S1130DA0D105A1F7DF91CF911F910F91FF90089585
S1130DB0CF92DF92FF920F931F93CF93DF938230F2
S1130DC010F5F82E062F172FC0E0D0E0C82ED12C36
S1130DD0C601880F991F880F991F880F991F9C01BE
S1130DE02B563B4F6901F801D8018D918D01D60135
S1130DF0AC0FBD1F8C9340816C2F8F2D90DF2196FB
S1130E00C830D10581F7DF91CF911F910F91FF90E9
S1130E10DF90CF900895823080F4683070F4E82F2A
S1130E20F0E0EE0FFF1FEE0FFF1FEE0FFF1FEB565C
S1130E30FB4FE60FF11D408372CF0895603468F5CF
S1130E40362F3770E82FF0E0EE0FFF1FEE0FFF1F75
S1130E50EE0FFF1FEB56FB4FE30FF11D20814423E0
S1130E6069F0962F96959695969541E050E002C0CC
S1130E70440F551F9A95E2F7422B0DC0962F969575
S1130E809695969541E050E002C0440F551F9A95FF
S1130E90E2F740954223632FBECF089541E0CECFC1
S1130EA0089540E0CBCF08958130910549F004972F
S1130EB009F099C180912204882309F494C1AAC23B
S1130EC08AE090E0DFD980912104882309F4A2C24A
S1130ED080912204882309F486C19CC28081880FF2
S1130EE081932E173F07D1F780912904882309F4B1
S1130EF0B7C08091390490E020918B04FC01E35445
S1130F00FD4F3081231708F09BC0FC01ED59FD4FC4
S1130F10808180939004813019F5EAE2F4E08081C5
S1130F208160808381818160818380912004882312
S1130F3009F482C080911D0481117EC080911F0438
S1130F4081117AC080911E04811176C0809126049B
S1130F5090912704019690932704809326046CC0F3
S1130F60823019F5EAE2F4E0828181608283838130
S1130F70816083838091200481115EC080911D046F
S1130F8081115AC080911F04882309F455C08091AF
S1130F901E04811151C0809126049091270401966A
S1130FA0909327048093260447C0833011F5EAE226
S1130FB0F4E084818160848385818160858380916C
S1130FC02004811139C080911D04811135C08091A4
S1130FD01F04811131C080911E04882369F180911E
S1130FE02604909127040196909327048093260465
S1130FF023C0843009F5EAE2F4E0868181608683C7
S113100087818160878380912004811115C080913C
S11310101D04882389F080911F0481110DC08091E3
S11310201E04811109C08091260490912704019621
S113103090932704809326042F5F20938B0410C081
S113104020913704FC01E057FD4F8081281720F4DC
S11310502F5F2093370404C010928B04109237043E
S113106080912804882309F4B7C08091390490E062
S113107020918B04FC01E65DFE4F3081231708F0BC
S11310809BC0FC01E050FF4F80818093900481302D
S113109019F5EAE2F4E080818160808381818160D6
S11310A0818380912004882309F482C080911D04E7
S11310B081117EC080911F0481117AC080911E0429
S11310C0811176C080912604909127040196909313
S11310D02704809326046CC0823019F5EAE2F4E018
S11310E082818160828383818160838380912004F3
S11310F081115EC080911D0481115AC080911F042A
S1131100882309F455C080911E04811151C0809137
S11311102604909127040196909327048093260433
S113112047C0833011F5EAE2F4E08481816084836E
S113113085818160858380912004811139C08091EB
S11311401D04811135C080911F04811131C080912B
S11311501E04882369F18091260490912704019646
S1131160909327048093260423C0843009F5EAE28F
S1131170F4E08681816086838781816087838091A2
S11311802004811115C080911D04882389F0809169
S11311901F0481110DC080911E04811109C080912A
S11311A026049091270401969093270480932604A3
S11311B02F5F20938B0410C020913704FC01EB5E59
S11311C0FE4F8081281720F42F5F2093370404C03A
S11311D010928B04109237046AE274E080E0E8DD38
S11311E081E090E0089580912004882309F446C0AA
S11311F087E28093230467E280918B044FDE609141
S11312002304685080918B0449DE2FE88FE591E038
S1131210215080409040E1F700C000006091230419
S1131220615060932304603238F72FE986E891E037
S1131230215080409040E1F700C0000087E2809395
S1131240230467E280918B042CDE609123046850B0
S113125080918B0426DE2FE88FE591E021508040B9
S11312609040E1F700C00000609123046150609356
S11312702304603238F784E090E0089580911D04DF
S1131280882309F446C080E28093230460E28091BD
S11312908B0404DE60912304685080918B04FEDD8E
S11312A02FE88FE591E0215080409040E1F700C0A5
S11312B00000609123046F5F60932304683238F365
S11312C02FE986E891E0215080409040E1F700C08A
S11312D0000080E28093230460E280918B04E1DDCE
S11312E060912304685080918B04DBDD2FE88FE547
S11312F091E0215080409040E1F700C000006091EF
S113130023046F5F60932304683238F384E090E031
S1131310089580911F048823D1F187E080932304EA
S113132067E080918B04BADD2FE88FE591E02150CE
S113133080409040E1F700C0000060912304685FA2
S1131340609323046C3368F32FE986E891E021501D
S113135080409040E1F700C0000087E080932304C0
S113136067E080918B049DDD2FE88FE591E02150AB
S113137080409040E1F700C0000060912304685F62
S1131380609323046C3368F384E090E008958091C3
S11313901E048823D1F180E48093230460E48091C7
S11313A08B047CDD2FE88FE591E021508040904054
S11313B0E1F700C0000060912304685060932304A7
S11313C06111EDCF2FE986E891E0215080409040F3
S11313D0E1F700C0000080E48093230460E480917E
S11313E08B045FDD2FE88FE591E021508040904031
S11313F0E1F700C000006091230468506093230467
S11314006111EDCF84E090E0089580E0ADDC84E0EC
S113141090E00895EAE2F4E022E334E05FCDCF9374
S11314209CDCC0E061E08C2F3EDC60E08C2F47DC6C
S113143060E08C2F50DC6FE08C2F3BDC67E08C2F5E
S113144044DC8C2F91DCCF5FC23061F7CF910895DB
S113145011B88FEF82B984B915B88AB91BB887B9A6
S113146018B80E94A601DBDF61E080E022DC43E0E3
S113147050E061E070E085EA94E09FD243E050E000
S113148067E070E081E994E098D2EAE3F4E0108246
S113149088E290E0A0E0B0E081839283A383B483E8
S11314A0158216821782108629E830E03287218758
S11314B0138684879587A687B787108A118A128A2C
S11314C0138A2BE930E0358B248B168A878B908F17
S11314D0A18FB28F138E148E158E168E2DEA30E0E6
S11314E030A3278F11A282A393A3A4A3B5A316A20A
S11314F017A210A611A62FEB30E033A722A714A63B
S113150085A796A7A7A7B0AB11AA12AA13AA14AAD3
S11315102EE332E036AB25AB17AA49E150E060E098
S113152070E040AF51AF62AF73AF14AE15AE16AEFC
S113153017AE23E635E030937B0420937A0424E04D
S113154020937C0480937D0490937E04A0937F0475
S1131550B093800410928104109282041092830448
S11315601092840484E597E0909386048093850424
S113157065E070E080E090E00E94D1000E94E2000B
S11315800F2EF7E8EF2EF4E0FF2EF02DCAE3D4E09F
S11315908E014D815E816F81788589819A81AB81CD
S11315A0BC81481759076A077B0760F08881E98581
S11315B0FA85082E000C990B099588831D821E82DA
S11315C01F821886F80185819681A781B0850596CA
S11315D0A11DB11D85839683A783B0872B96CE1555
S11315E0DF05B1F6809136048823E1F310923604C6
S11315F0CDCF9CD008F481E008950CD0D2C0CAD0DD
S113160040F0C1D030F021F45F3F19F0B3C0511164
S1131610FCC0B6C0D7D098F39923C9F35523B1F3CE
S1131620951B550BBB27AA2762177307840738F04D
S11316309F5F5F4F220F331F441FAA1FA9F333D0AC
S11316400E2E3AF0E0E830D091505040E695001C60
S1131650CAF729D0FE2F27D0660F771F881FBB1F1C
S1131660261737074807AB07B0E809F0BB0B802DF6
S1131670BF01FF2793585F4F2AF09E3F510568F042
S113168079C0C3C05F3FECF3983EDCF38695779551
S11316906795B795F7959F5FC9F7880F911D969544
S11316A0879597F90895E1E0660F771F881FBB1FA0
S11316B0621773078407BA0720F0621B730B840B4D
S11316C0BA0BEE1F88F7E095089504D06894B11121
S11316D09CC008957FD088F09F5790F0B92F992728
S11316E0B751A0F0D1F0660F771F881F991F1AF029
S11316F0BA95C9F712C0B13081F086D0B1E008952F
S113170083C0672F782F8827B85F39F0B93FCCF3AF
S1131710869577956795B395D9F73EF4909580951E
S1131720709561957F4F8F4F9F4F0895990F0008D3
S1131730550FAA0BE0E8FEEF16161706E807F9079F
S1131740C0F012161306E407F50798F0621B730B3A
S1131750840B950B39F40A2661F0232B242B252BBB
S113176021F408950A2609F4A140A6958FEF811D5E
S1131770811D089597F99F6780E870E060E00895FF
S11317809FEF80EC089500240A9416161706180695
S11317900906089500240A94121613061406050671
S11317A00895092E0394000C11F4882352F0BB0F02
S11317B040F4BF2B11F460FF04C06F5F7F4F8F4F65
S11317C09F4F089557FD9058440F551F59F05F3FA0
S11317D071F04795880F97FB991F61F09F3F79F04F
S11317E087950895121613061406551FF2CF4695D1
S11317F0F1DF08C0161617061806991FF1CF869553
S11318007105610508940895E894BB276627772736
S1131810CB0197F908958ADF08F48FEF08950BD070
S1131820C0CFB1DF28F0B6DF18F0952309F0A2CFBE
S1131830A7CF1124EACFC6DFA0F3959FD1F3950F6C
S113184050E0551F629FF001729FBB27F00DB11D40
S1131850639FAA27F00DB11DAA1F649F6627B00DD0
S1131860A11D661F829F2227B00DA11D621F739FB9
S1131870B00DA11D621F839FA00D611D221F749FC7
S11318803327A00D611D231F849F600D211D822F0E
S1131890762F6A2F11249F5750408AF0E1F0882355
S11318A04AF0EE0FFF1FBB1F661F771F881F915062
S11318B05040A9F79E3F510570F05CCFA6CF5F3F23
S11318C0ECF3983EDCF3869577956795B795F79595
S11318D0E7959F5FC1F7FE2B880F911D969587951D
S11318E097F90895EE0FFF1F0024001C0BBE07900C
S11318F0F691E02D0994FC0188279927E894219119
S11319002032E9F3293010F02E30C8F32B3239F0AD
S11319102D3231F4689403C01FD0820F911D2191A0
S113192020532A30C8F31EF4909581959F4F089553
S11319304532510518F4423008F004C0FB0110820E
S1131940CB010895BB274A3031F4992322F4BDE238
S1131950909581959F4F09C07AE0979F902D879F1E
S1131960802D910D11240895BB27FB015527AA272B
S1131970880F991FAA1FA41710F0A41B8395505118
S1131980B9F7A05DAA3308F0A95DA193009779F790
S1131990B111B1931192CB0100C0DC01FC01672F9E
S11319A071917723E1F7329704C07C916D93708332
S11319B06291AE17BF07C8F30895DC01CB01FC01A7
S11319C0F999FECF06C0F2BDE1BDF89A319600B494
S11319D00D9241505040B8F70895DC01CB0102C08C
S11319E02D9105D041505040D8F70895262FF999EC
S11319F0FECF1FBA92BD81BD20BD0FB6F894FA9AEE
S10F1A00F99A0FBE01960895F894FFCFE8
S1131A0C00010102030401010203040101020304A5
S1131A1C0101020304080004040404000404040483
S1131A2C0004040404000400000008060604040472
S1131A3C060604040406060404040606040404004E
S1131A4C00000000809B4300809B4300809B43006C
S1131A5C809B430000E9430000E9430000E9430094
S1131A6CC0124400C0124400801B4400801B44007C
S1131A7C801B440000C4430000C4430000C4430062
S1131A8C00E9430000E9430000E94300C0124400AC
S1131A9CC0124400801B4400801B4400801B440083
S1131AAC00C4430000C4430000C4430000E94300E5
S1131ABC00E9430000E94300C0124400C012440092
S1131ACC801B4400801B4400801B4400809B43000B
S1131ADC809B4300809B4300809B430000E94300B0
S1131AEC00E9430000E94300C0124400C012440062
S1131AFC801B4400801B4400801B440000C4430032
S1131B0C00C4430000C4430000E9430000E943005F
S1131B1C00E94300C0124400C0124400801B44007E
S1131B2C801B4400801B440000C4430000C44300D9
S1131B3C00C4430000E9430000E9430000E943000A
S1131B4CC0124400C0124400801B4400801B44009B
S1131B5C801B4400809B4300809B4300809B43007C
S1131B6C809B4300010101020304040402020201EC
S1131B7C0101020304040402020201010102030430
S1131B8C040402020201010102030404040202021D
S1131B9C0800000001000100000100000000000129
S1131BAC000100000100000100000100010000011F
S1131BBC00000100000100040000000000080606FB
S1131BCC06040406060604040406060604040606B3
S1131BDC06040404060606040406060604040406A5
S1131BEC06060404060606040404000000000000B3
S1131BFCDC430000DC430000DC430000C443000071
S1131C0CB94300808A4300808A4300808A430000E1
S1131C1C774300007743000077430000DC43000067
S1131C2CDC430000DC430000C4430000B9430080E3
S1131C3C8A4300808A4300808A4300007743000073
S1131C4C7743000077430000DC430000DC430000D2
S1131C5CDC430000C4430000B94300808A43008085
S1131C6C8A4300808A4300007743000077430000D6
S1131C7C77430000DC430000DC430000DC4300003D
S1131C8CC4430000B94300808A4300808A43008027
S1131C9C8A430000774300007743000077434E6586
S1131CAC77506F696E74732053636F726564214C43
S1131CBC696F6E68656172746564486967682053FE
S1131CCC636F7265506C617947686F737420566FDB
S1131CDC696365731F191A1E1E1A191F0F08080849
S1131CEC0F01011F1F1F13131F13131300100010D8
S1131CFC101010101F0B0B0F0808081C1F111111CA
S1131D0C1111111F1F1504040404040419191919C1
S10B1D1C1919191F0100000050
S9030000FC
