:100000004CC0000067C0000065C0000063C0000075
:1000100061C000005FC000005DC000005BC0000068
:1000200059C0000057C0000055C0000053C0000078
:1000300051C00000A9C000004DC000004BC000002E
:1000400049C0000047C0000045C0000043C0000098
:1000500041C000003FC000003DC000003BC00000A8
:1000600039C0000037C0000035C0000033C00000B8
:1000700031C000002FC000002DC000002BC00000C8
:1000800029C0000027C0000025C00000D501DF0105
:10009000010226024E027802760211241FBECFEF23
:1000A000D0E4DEBFCDBF11E0A0E0B1E0E0E0F7E0DA
:1000B00000E00BBF02C007900D92A837B107D9F737
:1000C00021E0A8E7B1E001C01D92AF3AB207E1F725
:1000D00082D214C395CF8230910540F4009904C0B8
:1000E00081E080937B01089510927B010895823016
:1000F000910540F4029904C081E080937A0108954B
:1001000010927A0108958230910540F4019904C05B
:1001100081E08093790108951092790108956093A8
:100120005A0170935B0180935C0190935D01609331
:100130007C0170937D0180937E0190937F010895EF
:100140008BE0809381008DE790E09093890080930D
:10015000880082E080936F001092850010928400E6
:1001600080915A0190915B01A0915C01B0915D0179
:1001700080937C0190937D01A0937E01B0937F01D9
:100180008FB780688FBF08951F920F920FB60F929E
:1001900011248F939F93AF93BF9380917C01909193
:1001A0007D01A0917E01B0917F010197A109B10964
:1001B00080937C0190937D01A0937E01B0937F0199
:1001C000892B8A2B8B2B99F481E08093800180917D
:1001D0005A0190915B01A0915C01B0915D01809307
:1001E0007C0190937D01A0937E01B0937F01BF912C
:1001F000AF919F918F910F900FBE0F901F90189508
:10020000181619065CF00895000021503109E1F735
:100210004F5F5F4F8417950719F4089540E050E051
:1002200027E033E0F1CF40988BB9419A0000419824
:1002300082E090E0E5CF089581E0F5CF0895813127
:1002400018F48158F0CF08958155EDCF0895409A64
:100250008BB9419A0000419881E090E0D1CF089598
:100260000F931F93CF93DF93182FEB01E5DF888166
:10027000882351F001E0010F812FE1DF8991E7DF51
:10028000102F88818111F6CFDF91CF911F910F91AF
:100290000895EF92FF920F931F93CF93DF93EC019A
:1002A0008230910519F12CF4009761F0019789F0E3
:1002B00074C08430910509F452C09CF1059709F48B
:1002C00017C16BC080917B01882309F46EC0B4DF35
:1002D00076C088EB9BE094DF80917B01882309F452
:1002E0006EC088EB9BE08CDFA7DF8BC080917A012A
:1002F000882331F080917901811108C09DDFCEC043
:1003000080917901882311F097DFA0C080917B0153
:10031000882309F476C090DF8EE591E08093810117
:10032000E7C084E690E06CDF80917B01882331F0A8
:1003300083DF8EE591E080938101DAC080917A01BC
:10034000811107C080917901882309F47FC074DF8F
:100350007DC080917901811179C06EDF9FC084E6F4
:1003600090E04EDF80917B01882331F065DF8BE6E2
:1003700091E080938101BCC080917A01811107C016
:1003800080917901882309F489C056DF5FC080918C
:100390007901811183C050DF81C0C730D10508F0D9
:1003A000C8C0FE01EA5BFF4FA0C18EE190E028DFEC
:1003B00060E771E081E054DFC0E0D0E0BAC08EE1D8
:1003C00090E01EDF85E03BDF86E041DF89E73FDF2D
:1003D00086E03DDF84E53BDF87E039DF8DE437DF12
:1003E00085E12DDF80E033DF81E031DF82E02FDF48
:1003F00083E02DDF84E02BDF85E029DFC1E0D0E062
:1004000098C08EE190E0FCDE82E019DF85EA1FDF14
:1004100083E015DFCEE0D1E00F2EFAE1EF2EF1E020
:10042000FF2EF02D8E01F80181918F0110DF0E1546
:100430001F05C9F783E103DF899109DFCE15DF05C9
:10044000D9F781E0FCDEC2E0D0E073C084E690E042
:10045000D7DE82E0F4DE85EAFADE83E0F0DECEE08D
:10046000D1E00F2EFAE1EF2EF1E0FF2EF02D8E01FC
:10047000F80181918F01EBDE0E151F05C9F783E1AD
:10048000DEDE8991E4DECE15DF05D9F781E0D7DE27
:1004900081E080937801C3E0D0E04BC084E690E037
:1004A000AFDE83E0CCDECEE0D1E00F2EFAE1EF2E1E
:1004B000F1E0FF2EF02D8E01F80181918F01C7DE52
:1004C0000E151F05C9F782E1BADE85EAC0DE83E1B9
:1004D000B6DE8991BCDECE15DF05D9F781E1AFDE4E
:1004E00082E080937801C4E0D0E023C0A5DE21C083
:1004F00084E690E085DE82E0A2DE85EAA8DE83E085
:100500009EDECAE0D1E00EE011E08991A0DEC017C6
:10051000D107D9F783E193DEC0E0D1E00AE011E032
:10052000899195DEC017D107D9F781E088DEC5E053
:10053000D0E0CE01DF91CF911F910F91FF90EF900E
:1005400008950F931F93CF93DF938B01883068F446
:10055000880F880F880F805C66DEE801085F1F4FF8
:10056000899175DEC017D107D9F780E85CDEDF918D
:10057000CF911F910F91089584E690E041DE88E3CA
:1005800052DE86E050DE8FE04EDE81E04CDE8AE017
:1005900090E036DE62E571E080E0D3DF6AE471E08E
:1005A00081E0CFDF62E471E082E0CBDF6AE371E0FB
:1005B00083E0C7DF62E371E084E0C3DF6AE271E0F9
:1005C00085E0BFDF62E271E086E0BBDF6AE171E0F7
:1005D00087E0B7CF089511B88FEF82B984B915B805
:1005E0008AB91BB887B918B8C7DFE2E8F1E0108212
:1005F00088E290E0A0E0B0E081839283A383B4839B
:1006000015821682178210862BE630E0328721870A
:10061000138684879587A687B787108A118A128ADE
:10062000138A27E730E0358B248B168A878B908FCF
:10063000A18FB28F138E148E158E168E23E830E0A4
:1006400030A3278F11A282A393A3A4A3B5A316A2BC
:1006500017A210A611A689E491E093A782A765E0EE
:1006600070E080E090E05BDD6BDD0F2EFEEAEF2EA8
:10067000F1E0FF2EF02DC2E8D1E08E014D815E81C8
:100680006F81788589819A81AB81BC814817590730
:100690006A077B0760F08881E985FA85082E000CDF
:1006A000990B099588831D821E821F821886F80186
:1006B00085819681A781B0850596A11DB11D858391
:1006C0009683A783B0872B96CE15DF05B1F6809170
:1006D00080018823E1F31092800183B7816083BF9A
:1006E000889583B78E7F83BFC6CFEE0FFF1F002490
:1006F000001C0BBE0790F691E02D0994F894FFCFF3
:10070000486967682053636F7265506C6179476808
:100710006F737420566F696365731F191A1E1E1A52
:10072000191F0F0808080F01011F1F1F13131F13A4
:10073000131300100010101010101F0B0B0F0808DF
:10074000081C1F1111111111111F1F15040404049D
:100750000404191919191919191F01000000476813
:100760006F737420566F6963657300456173790018
:0807700057656C636F6D6500B5
:00000001FF
