:1000000045C0000060C000005EC000005CC0000091
:100010005AC0000058C0000056C0000054C0000084
:1000200052C0000050C000004EC000004CC0000094
:100030004AC0000049C0000046C0000044C00000A3
:1000400042C0000040C000003EC000003CC00000B4
:100050003AC0000038C0000036C0000034C00000C4
:1000600032C0000030C000002EC000002CC00000D4
:100070002AC0000028C0000026C0000024C00000E4
:1000800022C0000020C000001EC0000011241FBEBE
:10009000CFEFD0E4DEBFCDBF11E0A0E0B1E0E2EAF7
:1000A000F1E000E00BBF02C007900D92AC30B10749
:1000B000D9F721E0ACE0B1E001C01D92A131B20757
:1000C000E1F75FD06CC09CCF1F920F920FB60F92DA
:1000D00011248F939F93AF93BF9380910C019091C4
:1000E0000D01A0910E01B0910F010197A109B10975
:1000F00080930C0190930D01A0930E01B0930F011A
:10010000892B8A2B8B2B99F481E0809310018091AD
:10011000080190910901A0910A01B0910B0180930F
:100120000C0190930D01A0930E01B0930F01BF91AC
:10013000AF919F918F910F900FBE0F901F901895C8
:1001400084B1876084B908952A9A2A980895299AD3
:1001500081E0982F9A95F1F729988A95F1F70895FB
:10016000CF93DF93D82FC8E0DD2314F4289A01C081
:100170002898EADFDD0FC150B9F7E9DFDF91CF91B1
:1001800008958FEF84B915B8DBDFC0E0D1E008E057
:1001900011E08991E5DFC017D107D9F7FFCFF894B7
:0201A000FFCF8F
:0C01A200F00FFF00FFFFFFFF0100000056
:00000001FF
